{
  "address": "0x876FD7DB0868102d6d862850f4CE1bc8A6E4E946",
  "abi": [
    {
      "inputs": [],
      "stateMutability": "nonpayable",
      "type": "constructor"
    },
    {
      "anonymous": false,
      "inputs": [
        {
          "indexed": false,
          "internalType": "address",
          "name": "branchAddr",
          "type": "address"
        },
        {
          "indexed": false,
          "internalType": "address",
          "name": "parentToken",
          "type": "address"
        },
        {
          "indexed": false,
          "internalType": "uint256",
          "name": "amount",
          "type": "uint256"
        },
        {
          "indexed": false,
          "internalType": "address",
          "name": "issuer",
          "type": "address"
        },
        {
          "indexed": false,
          "internalType": "uint256",
          "name": "branchId",
          "type": "uint256"
        }
      ],
      "name": "SplitBranch",
      "type": "event"
    },
    {
      "inputs": [
        {
          "internalType": "address",
          "name": "parentToken",
          "type": "address"
        },
        {
          "internalType": "uint256",
          "name": "amount",
          "type": "uint256"
        }
      ],
      "name": "splitBranch",
      "outputs": [],
      "stateMutability": "nonpayable",
      "type": "function"
    }
  ],
  "transactionHash": "0xf02475ad51c203ba1921d8ecc0b73cfef6ad055f72b20fd4c6b2d586613883e7",
  "args": [],
  "numDeployments": 1,
  "solcInputHash": "504c552c4fc11ad7d3509b46fa178c25",
  "bytecode": "0x6080604052600060015534801561001557600080fd5b50614169806100256000396000f3fe608060405234801561001057600080fd5b506004361061002b5760003560e01c8063150f10e114610030575b600080fd5b61004361003e3660046102bb565b610045565b005b60015481116100b4576040517f08c379a000000000000000000000000000000000000000000000000000000000815260206004820152601960248201527f4d5553545f475245415445525f5448414e5f4d494e494d554d00000000000000604482015260640160405180910390fd5b600082336040516100c4906102ae565b73ffffffffffffffffffffffffffffffffffffffff928316815291166020820152604001604051809103906000f080158015610104573d6000803e3d6000fd5b506040805160608101825273ffffffffffffffffffffffffffffffffffffffff838116808352878216602080850182815233868801818152600080548152600294859052899020975188549088167fffffffffffffffffffffffff00000000000000000000000000000000000000009182161789559251600189018054918916918516919091179055519690920180549690951695169490941790925592517f23b872dd0000000000000000000000000000000000000000000000000000000081526004810192909252602482019290925260448101859052919250906323b872dd906064016020604051808303816000875af1158015610209573d6000803e3d6000fd5b505050506040513d601f19601f8201168201806040525081019061022d9190610300565b506000546040805173ffffffffffffffffffffffffffffffffffffffff8481168252861660208201528082018590523360608201526080810192909252517fe7ba7c736ee01b2bba2f5926d861c1813ceb0babfe0cd485768222ceb296e1d79181900360a00190a16000805490806102a483610329565b9190505550505050565b613daa8061038a83390190565b600080604083850312156102ce57600080fd5b823573ffffffffffffffffffffffffffffffffffffffff811681146102f257600080fd5b946020939093013593505050565b60006020828403121561031257600080fd5b8151801515811461032257600080fd5b9392505050565b60007fffffffffffffffffffffffffffffffffffffffffffffffffffffffffffffffff821415610382577f4e487b7100000000000000000000000000000000000000000000000000000000600052601160045260246000fd5b506001019056fe6080604052600280546001600160a01b03191673469788fe6e9e9681c6ebf3bf78e7fd26fc0154461790553480156200003757600080fd5b5060405162003daa38038062003daa8339810160408190526200005a9162000113565b6200006533620000a6565b600180546001600160a01b0319166001600160a01b0384161790556200008b81620000a6565b50506001805460ff60a01b1916600160a01b1790556200014b565b600080546001600160a01b038381166001600160a01b0319831681178455604051919092169283917f8be0079c531659141344cd1fd0a4f28419497f9722a3daafe3b4186f6b6457e09190a35050565b80516001600160a01b03811681146200010e57600080fd5b919050565b600080604083850312156200012757600080fd5b6200013283620000f6565b91506200014260208401620000f6565b90509250929050565b613c4f806200015b6000396000f3fe60806040523480156200001157600080fd5b5060043610620001095760003560e01c806398eba7eb11620000a3578063c6ac39f0116200006e578063c6ac39f01462000218578063c6c363d11462000222578063cac9744b1462000239578063f2fde38b146200025057600080fd5b806398eba7eb14620001bc5780639cf609a314620001d3578063a41a0c1614620001ea578063b21c7935146200020157600080fd5b806355ef20e211620000e457806355ef20e2146200015b578063715018a6146200017257806386728d2c146200017c5780638da5cb5b146200019357600080fd5b806304abebb8146200010e578063160fb908146200012757806317caf6f1146200013e575b600080fd5b620001256200011f366004620013a9565b62000267565b005b6200012562000138366004620013cc565b620003a1565b6200014860045481565b6040519081526020015b60405180910390f35b620001256200016c366004620014da565b6200051d565b620001256200066f565b620001256200018d36600462001578565b620006e6565b60005460405173ffffffffffffffffffffffffffffffffffffffff909116815260200162000152565b62000125620001cd366004620013a9565b620007c9565b62000148620001e4366004620013cc565b620008dd565b62000125620001fb36600462001596565b62000904565b6200012562000212366004620013cc565b62000aec565b6200012562000c06565b6200012562000233366004620013cc565b62000e0a565b620001256200024a36600462001612565b62000f5c565b620001256200026136600462001578565b62001081565b81620002ba5760405162461bcd60e51b815260206004820152601060248201527f4e4f4e5f5a45524f5f4445504f5349540000000000000000000000000000000060448201526064015b60405180910390fd5b33600090815260096020526040902054620002d790829062001679565b33600090815260086020526040902054620002f490849062001679565b1015620003445760405162461bcd60e51b815260206004820152601460248201527f4558434545445f4445504f5349545f56414c55450000000000000000000000006044820152606401620002b1565b6200035133308462001183565b33600090815260086020526040812080548492906200037290849062001679565b909155505033600090815260096020526040812080548392906200039890849062001679565b90915550505050565b60005473ffffffffffffffffffffffffffffffffffffffff1633146200040a5760405162461bcd60e51b815260206004820181905260248201527f4f776e61626c653a2063616c6c6572206973206e6f7420746865206f776e65726044820152606401620002b1565b600260015474010000000000000000000000000000000000000000900460ff1660028111156200043e576200043e62001694565b146200048d5760405162461bcd60e51b815260206004820152601560248201527f4e4f545f494e495449414c495a45445f564f54455200000000000000000000006044820152606401620002b1565b6002546040517fbd86e5080000000000000000000000000000000000000000000000000000000081526004810183905273ffffffffffffffffffffffffffffffffffffffff909116602482018190529063bd86e50890604401600060405180830381600087803b1580156200050157600080fd5b505af115801562000516573d6000803e3d6000fd5b5050505050565b60005473ffffffffffffffffffffffffffffffffffffffff163314620005865760405162461bcd60e51b815260206004820181905260248201527f4f776e61626c653a2063616c6c6572206973206e6f7420746865206f776e65726044820152606401620002b1565b600082826040516200059890620012e7565b620005a592919062001731565b604051809103906000f080158015620005c2573d6000803e3d6000fd5b5060408051808201825273ffffffffffffffffffffffffffffffffffffffff83811682526020808301898152600c546000908152600b909252938120925183547fffffffffffffffffffffffff000000000000000000000000000000000000000016921691909117825591516001909101556004805492935086929091906200064d90849062001679565b9091555050600c8054906000620006648362001763565b919050555050505050565b60005473ffffffffffffffffffffffffffffffffffffffff163314620006d85760405162461bcd60e51b815260206004820181905260248201527f4f776e61626c653a2063616c6c6572206973206e6f7420746865206f776e65726044820152606401620002b1565b620006e46000620011eb565b565b60005473ffffffffffffffffffffffffffffffffffffffff1633146200074f5760405162461bcd60e51b815260206004820181905260248201527f4f776e61626c653a2063616c6c6572206973206e6f7420746865206f776e65726044820152606401620002b1565b600280547fffffffffffffffffffffffff00000000000000000000000000000000000000001673ffffffffffffffffffffffffffffffffffffffff83169081179091556040519081527f54413e4029c4b34d3b2d59e86cbd4e4c704bd444e9fb1ade66859555d9195775906020015b60405180910390a150565b81620008185760405162461bcd60e51b815260206004820152601160248201527f4e4f4e5f5a45524f5f57495448445241570000000000000000000000000000006044820152606401620002b1565b33600090815260086020526040812054620008359084906200179f565b101580156200086157503360009081526008602052604090205481906200085e9084906200179f565b10155b620008af5760405162461bcd60e51b815260206004820152601460248201527f4558434545445f4445504f5349545f56414c55450000000000000000000000006044820152606401620002b1565b620008bc30338462001183565b3360009081526008602052604081208054849290620003729084906200179f565b6000600454600a5483620008f29190620017b9565b620008fe9190620017f9565b92915050565b60008411620009565760405162461bcd60e51b815260206004820152600f60248201527f4e4f5f5a45524f5f504159504f555400000000000000000000000000000000006044820152606401620002b1565b6000838152600b6020526040908190205490517f23b872dd0000000000000000000000000000000000000000000000000000000081523360048201523060248201526044810186905273ffffffffffffffffffffffffffffffffffffffff909116906323b872dd906064016020604051808303816000875af1158015620009e1573d6000803e3d6000fd5b505050506040513d601f19601f8201168201806040525081019062000a07919062001835565b506040805160a081018252858152602080820186815273ffffffffffffffffffffffffffffffffffffffff86811684860190815260608501878152600060808701819052600754815260068652969096208551815592516001840155516002830180547fffffffffffffffffffffffff000000000000000000000000000000000000000016919092161790559251805192939262000aac9260038501920190620012f5565b5060809190910151600490910180547fffffffffffffffffffffffffffffffffffffffffffffffffffffffffffffff001691151591909117905550505050565b60008181526006602090815260408083206001808201548552600b84529382902082518084018452815473ffffffffffffffffffffffffffffffffffffffff9081168083529287015495820195909552600480840180547fffffffffffffffffffffffffffffffffffffffffffffffffffffffffffffff00169097179096556002830154835494517f23b872dd000000000000000000000000000000000000000000000000000000008152309781019790975290941660248601526044850192909252926323b872dd906064015b6020604051808303816000875af115801562000bda573d6000803e3d6000fd5b505050506040513d601f19601f8201168201806040525081019062000c00919062001835565b50505050565b60005473ffffffffffffffffffffffffffffffffffffffff16331462000c6f5760405162461bcd60e51b815260206004820181905260248201527f4f776e61626c653a2063616c6c6572206973206e6f7420746865206f776e65726044820152606401620002b1565b6001805474010000000000000000000000000000000000000000900460ff16600281111562000ca25762000ca262001694565b1462000cf15760405162461bcd60e51b815260206004820152601160248201527f4e4f545f50454e44494e475f53544154450000000000000000000000000000006044820152606401620002b1565b6000805473ffffffffffffffffffffffffffffffffffffffff1660405162000d199062001384565b73ffffffffffffffffffffffffffffffffffffffff9091168152602001604051809103906000f08015801562000d53573d6000803e3d6000fd5b50600380547fffffffffffffffffffffffff00000000000000000000000000000000000000001673ffffffffffffffffffffffffffffffffffffffff8316908117909155600180547fffffffffffffffffffffff00ffffffffffffffffffffffffffffffffffffffff16740200000000000000000000000000000000000000001790556040519081529091507f63a40fb1ca0677d69a93f19d3e96304954abf2c58888d1a1f940d91d5a550a9090602001620007be565b60005473ffffffffffffffffffffffffffffffffffffffff16331462000e735760405162461bcd60e51b815260206004820181905260248201527f4f776e61626c653a2063616c6c6572206973206e6f7420746865206f776e65726044820152606401620002b1565b6000818152600660205260409020600481015460ff161562000ed85760405162461bcd60e51b815260206004820152600e60248201527f414c52454144595f5041594f55540000000000000000000000000000000000006044820152606401620002b1565b62000eed816001015430836000015462001260565b600062000efe8260000154620008dd565b6004830180547fffffffffffffffffffffffffffffffffffffffffffffffffffffffffffffff00166001179055600283015490915062000f5790309073ffffffffffffffffffffffffffffffffffffffff168362001183565b505050565b60005473ffffffffffffffffffffffffffffffffffffffff16331462000fc55760405162461bcd60e51b815260206004820181905260248201527f4f776e61626c653a2063616c6c6572206973206e6f7420746865206f776e65726044820152606401620002b1565b6000838152600b602090815260409182902082518084018452815473ffffffffffffffffffffffffffffffffffffffff9081168083526001909301549382019390935292517f575dbebe0000000000000000000000000000000000000000000000000000000081529185166004830152602482018490529063575dbebe906044015b600060405180830381600087803b1580156200106257600080fd5b505af115801562001077573d6000803e3d6000fd5b5050505050505050565b60005473ffffffffffffffffffffffffffffffffffffffff163314620010ea5760405162461bcd60e51b815260206004820181905260248201527f4f776e61626c653a2063616c6c6572206973206e6f7420746865206f776e65726044820152606401620002b1565b73ffffffffffffffffffffffffffffffffffffffff8116620011755760405162461bcd60e51b815260206004820152602660248201527f4f776e61626c653a206e6577206f776e657220697320746865207a65726f206160448201527f64647265737300000000000000000000000000000000000000000000000000006064820152608401620002b1565b6200118081620011eb565b50565b6001546040517f23b872dd00000000000000000000000000000000000000000000000000000000815273ffffffffffffffffffffffffffffffffffffffff8581166004830152848116602483015260448201849052909116906323b872dd9060640162000bba565b6000805473ffffffffffffffffffffffffffffffffffffffff8381167fffffffffffffffffffffffff0000000000000000000000000000000000000000831681178455604051919092169283917f8be0079c531659141344cd1fd0a4f28419497f9722a3daafe3b4186f6b6457e09190a35050565b6000838152600b602090815260409182902082518084018452815473ffffffffffffffffffffffffffffffffffffffff9081168083526001909301549382019390935292517f63fb8cf9000000000000000000000000000000000000000000000000000000008152918516600483015260248201849052906363fb8cf99060440162001047565b61140180620018b083390190565b828054620013039062001859565b90600052602060002090601f01602090048101928262001327576000855562001372565b82601f106200134257805160ff191683800117855562001372565b8280016001018555821562001372579182015b828111156200137257825182559160200191906001019062001355565b506200138092915062001392565b5090565b610f698062002cb183390190565b5b8082111562001380576000815560010162001393565b60008060408385031215620013bd57600080fd5b50508035926020909101359150565b600060208284031215620013df57600080fd5b5035919050565b7f4e487b7100000000000000000000000000000000000000000000000000000000600052604160045260246000fd5b600067ffffffffffffffff80841115620014335762001433620013e6565b604051601f85017fffffffffffffffffffffffffffffffffffffffffffffffffffffffffffffffe0908116603f011681019082821181831017156200147c576200147c620013e6565b816040528093508581528686860111156200149657600080fd5b858560208301376000602087830101525050509392505050565b600082601f830112620014c257600080fd5b620014d38383356020850162001415565b9392505050565b600080600060608486031215620014f057600080fd5b83359250602084013567ffffffffffffffff808211156200151057600080fd5b6200151e87838801620014b0565b935060408601359150808211156200153557600080fd5b506200154486828701620014b0565b9150509250925092565b803573ffffffffffffffffffffffffffffffffffffffff811681146200157357600080fd5b919050565b6000602082840312156200158b57600080fd5b620014d3826200154e565b60008060008060808587031215620015ad57600080fd5b8435935060208501359250620015c6604086016200154e565b9150606085013567ffffffffffffffff811115620015e357600080fd5b8501601f81018713620015f557600080fd5b620016068782356020840162001415565b91505092959194509250565b6000806000606084860312156200162857600080fd5b833592506200163a602085016200154e565b9150604084013590509250925092565b7f4e487b7100000000000000000000000000000000000000000000000000000000600052601160045260246000fd5b600082198211156200168f576200168f6200164a565b500190565b7f4e487b7100000000000000000000000000000000000000000000000000000000600052602160045260246000fd5b6000815180845260005b81811015620016eb57602081850181015186830182015201620016cd565b81811115620016fe576000602083870101525b50601f017fffffffffffffffffffffffffffffffffffffffffffffffffffffffffffffffe0169290920160200192915050565b604081526000620017466040830185620016c3565b82810360208401526200175a8185620016c3565b95945050505050565b60007fffffffffffffffffffffffffffffffffffffffffffffffffffffffffffffffff8214156200179857620017986200164a565b5060010190565b600082821015620017b457620017b46200164a565b500390565b6000817fffffffffffffffffffffffffffffffffffffffffffffffffffffffffffffffff0483118215151615620017f457620017f46200164a565b500290565b60008262001830577f4e487b7100000000000000000000000000000000000000000000000000000000600052601260045260246000fd5b500490565b6000602082840312156200184857600080fd5b81518015158114620014d357600080fd5b600181811c908216806200186e57607f821691505b60208210811415620018a9577f4e487b7100000000000000000000000000000000000000000000000000000000600052602260045260246000fd5b5091905056fe60806040523480156200001157600080fd5b506040516200140138038062001401833981016040819052620000349162000251565b8151829082906200004d906003906020850190620000de565b50805162000063906004906020840190620000de565b505050620000806200007a6200008860201b60201c565b6200008c565b5050620002f8565b3390565b600580546001600160a01b038381166001600160a01b0319831681179093556040519116919082907f8be0079c531659141344cd1fd0a4f28419497f9722a3daafe3b4186f6b6457e090600090a35050565b828054620000ec90620002bb565b90600052602060002090601f0160209004810192826200011057600085556200015b565b82601f106200012b57805160ff19168380011785556200015b565b828001600101855582156200015b579182015b828111156200015b5782518255916020019190600101906200013e565b50620001699291506200016d565b5090565b5b808211156200016957600081556001016200016e565b634e487b7160e01b600052604160045260246000fd5b600082601f830112620001ac57600080fd5b81516001600160401b0380821115620001c957620001c962000184565b604051601f8301601f19908116603f01168101908282118183101715620001f457620001f462000184565b816040528381526020925086838588010111156200021157600080fd5b600091505b8382101562000235578582018301518183018401529082019062000216565b83821115620002475760008385830101525b9695505050505050565b600080604083850312156200026557600080fd5b82516001600160401b03808211156200027d57600080fd5b6200028b868387016200019a565b93506020850151915080821115620002a257600080fd5b50620002b1858286016200019a565b9150509250929050565b600181811c90821680620002d057607f821691505b60208210811415620002f257634e487b7160e01b600052602260045260246000fd5b50919050565b6110f980620003086000396000f3fe608060405234801561001057600080fd5b50600436106101005760003560e01c806370a0823111610097578063a457c2d711610066578063a457c2d714610223578063a9059cbb14610236578063dd62ed3e14610249578063f2fde38b1461028f57600080fd5b806370a08231146101b5578063715018a6146101eb5780638da5cb5b146101f357806395d89b411461021b57600080fd5b8063313ce567116100d3578063313ce5671461016b578063395093511461017a578063575dbebe1461018d57806363fb8cf9146101a257600080fd5b806306fdde0314610105578063095ea7b31461012357806318160ddd1461014657806323b872dd14610158575b600080fd5b61010d6102a2565b60405161011a9190610eba565b60405180910390f35b610136610131366004610f56565b610334565b604051901515815260200161011a565b6002545b60405190815260200161011a565b610136610166366004610f80565b61034c565b6040516012815260200161011a565b610136610188366004610f56565b610370565b6101a061019b366004610f56565b6103bc565b005b6101a06101b0366004610f56565b610436565b61014a6101c3366004610fbc565b73ffffffffffffffffffffffffffffffffffffffff1660009081526020819052604090205490565b6101a06104a7565b60055460405173ffffffffffffffffffffffffffffffffffffffff909116815260200161011a565b61010d61051a565b610136610231366004610f56565b610529565b610136610244366004610f56565b6105e0565b61014a610257366004610fde565b73ffffffffffffffffffffffffffffffffffffffff918216600090815260016020908152604080832093909416825291909152205490565b6101a061029d366004610fbc565b6105ee565b6060600380546102b190611011565b80601f01602080910402602001604051908101604052809291908181526020018280546102dd90611011565b801561032a5780601f106102ff5761010080835404028352916020019161032a565b820191906000526020600020905b81548152906001019060200180831161030d57829003601f168201915b5050505050905090565b6000336103428185856106ea565b5060019392505050565b60003361035a85828561086a565b610365858585610927565b506001949350505050565b33600081815260016020908152604080832073ffffffffffffffffffffffffffffffffffffffff8716845290915281205490919061034290829086906103b7908790611094565b6106ea565b60055473ffffffffffffffffffffffffffffffffffffffff1633146104285760405162461bcd60e51b815260206004820181905260248201527f4f776e61626c653a2063616c6c6572206973206e6f7420746865206f776e657260448201526064015b60405180910390fd5b6104328282610b8c565b5050565b60055473ffffffffffffffffffffffffffffffffffffffff16331461049d5760405162461bcd60e51b815260206004820181905260248201527f4f776e61626c653a2063616c6c6572206973206e6f7420746865206f776e6572604482015260640161041f565b6104328282610c92565b60055473ffffffffffffffffffffffffffffffffffffffff16331461050e5760405162461bcd60e51b815260206004820181905260248201527f4f776e61626c653a2063616c6c6572206973206e6f7420746865206f776e6572604482015260640161041f565b6105186000610e43565b565b6060600480546102b190611011565b33600081815260016020908152604080832073ffffffffffffffffffffffffffffffffffffffff87168452909152812054909190838110156105d35760405162461bcd60e51b815260206004820152602560248201527f45524332303a2064656372656173656420616c6c6f77616e63652062656c6f7760448201527f207a65726f000000000000000000000000000000000000000000000000000000606482015260840161041f565b61036582868684036106ea565b600033610342818585610927565b60055473ffffffffffffffffffffffffffffffffffffffff1633146106555760405162461bcd60e51b815260206004820181905260248201527f4f776e61626c653a2063616c6c6572206973206e6f7420746865206f776e6572604482015260640161041f565b73ffffffffffffffffffffffffffffffffffffffff81166106de5760405162461bcd60e51b815260206004820152602660248201527f4f776e61626c653a206e6577206f776e657220697320746865207a65726f206160448201527f6464726573730000000000000000000000000000000000000000000000000000606482015260840161041f565b6106e781610e43565b50565b73ffffffffffffffffffffffffffffffffffffffff83166107725760405162461bcd60e51b8152602060048201526024808201527f45524332303a20617070726f76652066726f6d20746865207a65726f2061646460448201527f7265737300000000000000000000000000000000000000000000000000000000606482015260840161041f565b73ffffffffffffffffffffffffffffffffffffffff82166107fb5760405162461bcd60e51b815260206004820152602260248201527f45524332303a20617070726f766520746f20746865207a65726f20616464726560448201527f7373000000000000000000000000000000000000000000000000000000000000606482015260840161041f565b73ffffffffffffffffffffffffffffffffffffffff83811660008181526001602090815260408083209487168084529482529182902085905590518481527f8c5be1e5ebec7d5bd14f71427d1e84f3dd0314c0f7b2291e5b200ac8c7c3b92591015b60405180910390a3505050565b73ffffffffffffffffffffffffffffffffffffffff8381166000908152600160209081526040808320938616835292905220547fffffffffffffffffffffffffffffffffffffffffffffffffffffffffffffffff811461092157818110156109145760405162461bcd60e51b815260206004820152601d60248201527f45524332303a20696e73756666696369656e7420616c6c6f77616e6365000000604482015260640161041f565b61092184848484036106ea565b50505050565b73ffffffffffffffffffffffffffffffffffffffff83166109b05760405162461bcd60e51b815260206004820152602560248201527f45524332303a207472616e736665722066726f6d20746865207a65726f20616460448201527f6472657373000000000000000000000000000000000000000000000000000000606482015260840161041f565b73ffffffffffffffffffffffffffffffffffffffff8216610a395760405162461bcd60e51b815260206004820152602360248201527f45524332303a207472616e7366657220746f20746865207a65726f206164647260448201527f6573730000000000000000000000000000000000000000000000000000000000606482015260840161041f565b73ffffffffffffffffffffffffffffffffffffffff831660009081526020819052604090205481811015610ad55760405162461bcd60e51b815260206004820152602660248201527f45524332303a207472616e7366657220616d6f756e742065786365656473206260448201527f616c616e63650000000000000000000000000000000000000000000000000000606482015260840161041f565b73ffffffffffffffffffffffffffffffffffffffff808516600090815260208190526040808220858503905591851681529081208054849290610b19908490611094565b925050819055508273ffffffffffffffffffffffffffffffffffffffff168473ffffffffffffffffffffffffffffffffffffffff167fddf252ad1be2c89b69c2b068fc378daa952ba7f163c4a11628f55a4df523b3ef84604051610b7f91815260200190565b60405180910390a3610921565b73ffffffffffffffffffffffffffffffffffffffff8216610bef5760405162461bcd60e51b815260206004820152601f60248201527f45524332303a206d696e7420746f20746865207a65726f206164647265737300604482015260640161041f565b8060026000828254610c019190611094565b909155505073ffffffffffffffffffffffffffffffffffffffff821660009081526020819052604081208054839290610c3b908490611094565b909155505060405181815273ffffffffffffffffffffffffffffffffffffffff8316906000907fddf252ad1be2c89b69c2b068fc378daa952ba7f163c4a11628f55a4df523b3ef9060200160405180910390a35050565b73ffffffffffffffffffffffffffffffffffffffff8216610d1b5760405162461bcd60e51b815260206004820152602160248201527f45524332303a206275726e2066726f6d20746865207a65726f2061646472657360448201527f7300000000000000000000000000000000000000000000000000000000000000606482015260840161041f565b73ffffffffffffffffffffffffffffffffffffffff821660009081526020819052604090205481811015610db75760405162461bcd60e51b815260206004820152602260248201527f45524332303a206275726e20616d6f756e7420657863656564732062616c616e60448201527f6365000000000000000000000000000000000000000000000000000000000000606482015260840161041f565b73ffffffffffffffffffffffffffffffffffffffff83166000908152602081905260408120838303905560028054849290610df39084906110ac565b909155505060405182815260009073ffffffffffffffffffffffffffffffffffffffff8516907fddf252ad1be2c89b69c2b068fc378daa952ba7f163c4a11628f55a4df523b3ef9060200161085d565b6005805473ffffffffffffffffffffffffffffffffffffffff8381167fffffffffffffffffffffffff0000000000000000000000000000000000000000831681179093556040519116919082907f8be0079c531659141344cd1fd0a4f28419497f9722a3daafe3b4186f6b6457e090600090a35050565b600060208083528351808285015260005b81811015610ee757858101830151858201604001528201610ecb565b81811115610ef9576000604083870101525b50601f017fffffffffffffffffffffffffffffffffffffffffffffffffffffffffffffffe016929092016040019392505050565b803573ffffffffffffffffffffffffffffffffffffffff81168114610f5157600080fd5b919050565b60008060408385031215610f6957600080fd5b610f7283610f2d565b946020939093013593505050565b600080600060608486031215610f9557600080fd5b610f9e84610f2d565b9250610fac60208501610f2d565b9150604084013590509250925092565b600060208284031215610fce57600080fd5b610fd782610f2d565b9392505050565b60008060408385031215610ff157600080fd5b610ffa83610f2d565b915061100860208401610f2d565b90509250929050565b600181811c9082168061102557607f821691505b6020821081141561105f577f4e487b7100000000000000000000000000000000000000000000000000000000600052602260045260246000fd5b50919050565b7f4e487b7100000000000000000000000000000000000000000000000000000000600052601160045260246000fd5b600082198211156110a7576110a7611065565b500190565b6000828210156110be576110be611065565b50039056fea2646970667358221220e1538ac2afebc2d51a2053ee7b6f6a8bdc2a268937b14a3f3a637c2f6a1f2d1064736f6c634300080b0033608060405234801561001057600080fd5b50604051610f69380380610f6983398101604081905261002f916100c5565b61003833610075565b336000908152600160208190526040808320805460ff1990811684179091556001600160a01b0394909416835290912080549092161790556100f5565b600080546001600160a01b038381166001600160a01b0319831681178455604051919092169283917f8be0079c531659141344cd1fd0a4f28419497f9722a3daafe3b4186f6b6457e09190a35050565b6000602082840312156100d757600080fd5b81516001600160a01b03811681146100ee57600080fd5b9392505050565b610e65806101046000396000f3fe608060405234801561001057600080fd5b50600436106100885760003560e01c8063ac0679a61161005b578063ac0679a61461012b578063af0dbe541461013e578063b61d27f614610161578063f2fde38b1461018257600080fd5b80631626ba7e1461008d5780635d3a8999146100d6578063715018a6146100f95780638da5cb5b14610103575b600080fd5b6100a061009b366004610b45565b610195565b6040517fffffffff0000000000000000000000000000000000000000000000000000000090911681526020015b60405180910390f35b6100e96100e4366004610bc0565b610232565b60405190151581526020016100cd565b61010161026f565b005b60005460405173ffffffffffffffffffffffffffffffffffffffff90911681526020016100cd565b610101610139366004610cc2565b610301565b6100e961014c366004610cfe565b60016020526000908152604090205460ff1681565b61017461016f366004610d19565b610410565b6040516100cd929190610d73565b610101610190366004610cfe565b610514565b60006101d78484848080601f01602080910402602001604051908101604052809392919081815260200183838082843760009201919091525061023292505050565b15156001141561020857507f1626ba7e0000000000000000000000000000000000000000000000000000000061022b565b507fffffffff000000000000000000000000000000000000000000000000000000005b9392505050565b60008061023f8484610644565b73ffffffffffffffffffffffffffffffffffffffff1660009081526001602052604090205460ff16949350505050565b60005473ffffffffffffffffffffffffffffffffffffffff1633146102f5576040517f08c379a000000000000000000000000000000000000000000000000000000000815260206004820181905260248201527f4f776e61626c653a2063616c6c6572206973206e6f7420746865206f776e657260448201526064015b60405180910390fd5b6102ff6000610668565b565b60005473ffffffffffffffffffffffffffffffffffffffff163314610382576040517f08c379a000000000000000000000000000000000000000000000000000000000815260206004820181905260248201527f4f776e61626c653a2063616c6c6572206973206e6f7420746865206f776e657260448201526064016102ec565b73ffffffffffffffffffffffffffffffffffffffff821660008181526001602090815260409182902080547fffffffffffffffffffffffffffffffffffffffffffffffffffffffffffffff00168515159081179091558251938452908301527fb43d5232746338e9c1144f9527dfc24742e0c8ff638df3bb5d21cefbb83480f2910160405180910390a15050565b6000805460609073ffffffffffffffffffffffffffffffffffffffff163314610495576040517f08c379a000000000000000000000000000000000000000000000000000000000815260206004820181905260248201527f4f776e61626c653a2063616c6c6572206973206e6f7420746865206f776e657260448201526064016102ec565b6000808773ffffffffffffffffffffffffffffffffffffffff168787876040516104c0929190610df0565b60006040518083038185875af1925050503d80600081146104fd576040519150601f19603f3d011682016040523d82523d6000602084013e610502565b606091505b50909450925050505b94509492505050565b60005473ffffffffffffffffffffffffffffffffffffffff163314610595576040517f08c379a000000000000000000000000000000000000000000000000000000000815260206004820181905260248201527f4f776e61626c653a2063616c6c6572206973206e6f7420746865206f776e657260448201526064016102ec565b73ffffffffffffffffffffffffffffffffffffffff8116610638576040517f08c379a000000000000000000000000000000000000000000000000000000000815260206004820152602660248201527f4f776e61626c653a206e6577206f776e657220697320746865207a65726f206160448201527f646472657373000000000000000000000000000000000000000000000000000060648201526084016102ec565b61064181610668565b50565b600080600061065385856106dd565b915091506106608161074d565b509392505050565b6000805473ffffffffffffffffffffffffffffffffffffffff8381167fffffffffffffffffffffffff0000000000000000000000000000000000000000831681178455604051919092169283917f8be0079c531659141344cd1fd0a4f28419497f9722a3daafe3b4186f6b6457e09190a35050565b6000808251604114156107145760208301516040840151606085015160001a610708878285856109a6565b94509450505050610746565b82516040141561073e5760208301516040840151610733868383610abb565b935093505050610746565b506000905060025b9250929050565b600081600481111561076157610761610e00565b141561076a5750565b600181600481111561077e5761077e610e00565b14156107e6576040517f08c379a000000000000000000000000000000000000000000000000000000000815260206004820152601860248201527f45434453413a20696e76616c6964207369676e6174757265000000000000000060448201526064016102ec565b60028160048111156107fa576107fa610e00565b1415610862576040517f08c379a000000000000000000000000000000000000000000000000000000000815260206004820152601f60248201527f45434453413a20696e76616c6964207369676e6174757265206c656e6774680060448201526064016102ec565b600381600481111561087657610876610e00565b1415610904576040517f08c379a000000000000000000000000000000000000000000000000000000000815260206004820152602260248201527f45434453413a20696e76616c6964207369676e6174757265202773272076616c60448201527f756500000000000000000000000000000000000000000000000000000000000060648201526084016102ec565b600481600481111561091857610918610e00565b1415610641576040517f08c379a000000000000000000000000000000000000000000000000000000000815260206004820152602260248201527f45434453413a20696e76616c6964207369676e6174757265202776272076616c60448201527f756500000000000000000000000000000000000000000000000000000000000060648201526084016102ec565b6000807f7fffffffffffffffffffffffffffffff5d576e7357a4501ddfe92f46681b20a08311156109dd575060009050600361050b565b8460ff16601b141580156109f557508460ff16601c14155b15610a06575060009050600461050b565b6040805160008082526020820180845289905260ff881692820192909252606081018690526080810185905260019060a0016020604051602081039080840390855afa158015610a5a573d6000803e3d6000fd5b50506040517fffffffffffffffffffffffffffffffffffffffffffffffffffffffffffffffe0015191505073ffffffffffffffffffffffffffffffffffffffff8116610aae5760006001925092505061050b565b9660009650945050505050565b6000807f7fffffffffffffffffffffffffffffffffffffffffffffffffffffffffffffff831660ff84901c601b01610af5878288856109a6565b935093505050935093915050565b60008083601f840112610b1557600080fd5b50813567ffffffffffffffff811115610b2d57600080fd5b60208301915083602082850101111561074657600080fd5b600080600060408486031215610b5a57600080fd5b83359250602084013567ffffffffffffffff811115610b7857600080fd5b610b8486828701610b03565b9497909650939450505050565b7f4e487b7100000000000000000000000000000000000000000000000000000000600052604160045260246000fd5b60008060408385031215610bd357600080fd5b82359150602083013567ffffffffffffffff80821115610bf257600080fd5b818501915085601f830112610c0657600080fd5b813581811115610c1857610c18610b91565b604051601f82017fffffffffffffffffffffffffffffffffffffffffffffffffffffffffffffffe0908116603f01168101908382118183101715610c5e57610c5e610b91565b81604052828152886020848701011115610c7757600080fd5b8260208601602083013760006020848301015280955050505050509250929050565b803573ffffffffffffffffffffffffffffffffffffffff81168114610cbd57600080fd5b919050565b60008060408385031215610cd557600080fd5b610cde83610c99565b915060208301358015158114610cf357600080fd5b809150509250929050565b600060208284031215610d1057600080fd5b61022b82610c99565b60008060008060608587031215610d2f57600080fd5b610d3885610c99565b935060208501359250604085013567ffffffffffffffff811115610d5b57600080fd5b610d6787828801610b03565b95989497509550505050565b821515815260006020604081840152835180604085015260005b81811015610da957858101830151858201606001528201610d8d565b81811115610dbb576000606083870101525b50601f017fffffffffffffffffffffffffffffffffffffffffffffffffffffffffffffffe01692909201606001949350505050565b8183823760009101908152919050565b7f4e487b7100000000000000000000000000000000000000000000000000000000600052602160045260246000fdfea2646970667358221220b5a4c59d05cd4fd9cbe41401331cb36c635058ff057fd32432a5458fea79f78f64736f6c634300080b0033a2646970667358221220709f2b2213755ca894a9e0593f36438bd6d0c751590885a6b69d73dea3ed027f64736f6c634300080b0033a26469706673582212208fccda36f0347daeff071efc441aa15781c69da60c45a50e179fed2d35d7940d64736f6c634300080b0033",
  "devdoc": {
    "kind": "dev",
    "methods": {
      "splitBranch(address,uint256)": {
        "details": "create new branch for splint up subdao",
        "params": {
          "amount": "initial amount of parent token",
          "parentToken": "address of ERC20 token"
        }
      }
    },
    "version": 1
  },
  "userdoc": {
    "kind": "user",
    "methods": {},
    "version": 1
  },
  "storageLayout": {
    "storage": [
      {
        "astId": 1710,
        "contract": "contracts/SocotraFactory.sol:SocotraFactory",
        "label": "branchIds",
        "offset": 0,
        "slot": "0",
        "type": "t_uint256"
      },
      {
        "astId": 1713,
        "contract": "contracts/SocotraFactory.sol:SocotraFactory",
        "label": "MIN_ISSUE_AMOUNT",
        "offset": 0,
        "slot": "1",
        "type": "t_uint256"
      },
      {
        "astId": 1718,
        "contract": "contracts/SocotraFactory.sol:SocotraFactory",
        "label": "branches",
        "offset": 0,
        "slot": "2",
        "type": "t_mapping(t_uint256,t_struct(BranchInfo)1708_storage)"
      }
    ],
    "types": {
      "t_address": {
        "encoding": "inplace",
        "label": "address",
        "numberOfBytes": "20"
      },
      "t_mapping(t_uint256,t_struct(BranchInfo)1708_storage)": {
        "encoding": "mapping",
        "key": "t_uint256",
        "label": "mapping(uint256 => struct SocotraFactory.BranchInfo)",
        "numberOfBytes": "32",
        "value": "t_struct(BranchInfo)1708_storage"
      },
      "t_struct(BranchInfo)1708_storage": {
        "encoding": "inplace",
        "label": "struct SocotraFactory.BranchInfo",
        "members": [
          {
            "astId": 1703,
            "contract": "contracts/SocotraFactory.sol:SocotraFactory",
            "label": "branchAddr",
            "offset": 0,
            "slot": "0",
            "type": "t_address"
          },
          {
            "astId": 1705,
            "contract": "contracts/SocotraFactory.sol:SocotraFactory",
            "label": "parentToken",
            "offset": 0,
            "slot": "1",
            "type": "t_address"
          },
          {
            "astId": 1707,
            "contract": "contracts/SocotraFactory.sol:SocotraFactory",
            "label": "issuer",
            "offset": 0,
            "slot": "2",
            "type": "t_address"
          }
        ],
        "numberOfBytes": "96"
      },
      "t_uint256": {
        "encoding": "inplace",
        "label": "uint256",
        "numberOfBytes": "32"
      }
    }
  }
}