{
  "address": "0x2c1cDD151502732A6BD164D6d9411424691CfE55",
  "abi": [
    {
      "inputs": [
        {
          "internalType": "address",
          "name": "issuer",
          "type": "address"
        }
      ],
      "stateMutability": "nonpayable",
      "type": "constructor"
    },
    {
      "anonymous": false,
      "inputs": [
        {
          "indexed": true,
          "internalType": "address",
          "name": "previousOwner",
          "type": "address"
        },
        {
          "indexed": true,
          "internalType": "address",
          "name": "newOwner",
          "type": "address"
        }
      ],
      "name": "OwnershipTransferred",
      "type": "event"
    },
    {
      "anonymous": false,
      "inputs": [
        {
          "indexed": false,
          "internalType": "address",
          "name": "member",
          "type": "address"
        },
        {
          "indexed": false,
          "internalType": "bool",
          "name": "approval",
          "type": "bool"
        }
      ],
      "name": "UpdateVoter",
      "type": "event"
    },
    {
      "inputs": [
        {
          "internalType": "address",
          "name": "_to",
          "type": "address"
        },
        {
          "internalType": "uint256",
          "name": "_value",
          "type": "uint256"
        },
        {
          "internalType": "bytes",
          "name": "_data",
          "type": "bytes"
        }
      ],
      "name": "execute",
      "outputs": [
        {
          "internalType": "bool",
          "name": "",
          "type": "bool"
        },
        {
          "internalType": "bytes",
          "name": "",
          "type": "bytes"
        }
      ],
      "stateMutability": "nonpayable",
      "type": "function"
    },
    {
      "inputs": [
        {
          "internalType": "bytes32",
          "name": "_hash",
          "type": "bytes32"
        },
        {
          "internalType": "bytes",
          "name": "_signature",
          "type": "bytes"
        }
      ],
      "name": "isValidSignature",
      "outputs": [
        {
          "internalType": "bytes4",
          "name": "",
          "type": "bytes4"
        }
      ],
      "stateMutability": "view",
      "type": "function"
    },
    {
      "inputs": [
        {
          "internalType": "bytes32",
          "name": "_hash",
          "type": "bytes32"
        },
        {
          "internalType": "bytes",
          "name": "_signature",
          "type": "bytes"
        }
      ],
      "name": "isWinningSignature",
      "outputs": [
        {
          "internalType": "bool",
          "name": "",
          "type": "bool"
        }
      ],
      "stateMutability": "view",
      "type": "function"
    },
    {
      "inputs": [
        {
          "internalType": "address",
          "name": "_member",
          "type": "address"
        },
        {
          "internalType": "bool",
          "name": "_approval",
          "type": "bool"
        }
      ],
      "name": "modifyTeam",
      "outputs": [],
      "stateMutability": "nonpayable",
      "type": "function"
    },
    {
      "inputs": [],
      "name": "owner",
      "outputs": [
        {
          "internalType": "address",
          "name": "",
          "type": "address"
        }
      ],
      "stateMutability": "view",
      "type": "function"
    },
    {
      "inputs": [],
      "name": "renounceOwnership",
      "outputs": [],
      "stateMutability": "nonpayable",
      "type": "function"
    },
    {
      "inputs": [
        {
          "internalType": "address",
          "name": "newOwner",
          "type": "address"
        }
      ],
      "name": "transferOwnership",
      "outputs": [],
      "stateMutability": "nonpayable",
      "type": "function"
    },
    {
      "inputs": [
        {
          "internalType": "address",
          "name": "",
          "type": "address"
        }
      ],
      "name": "voter",
      "outputs": [
        {
          "internalType": "bool",
          "name": "",
          "type": "bool"
        }
      ],
      "stateMutability": "view",
      "type": "function"
    }
  ],
  "transactionHash": "0x96209c1bac39d79655ccea69726694310fe7e3ef48dd95e274be59a681a59b8a",
  "args": [
    "0x8679833F7Fe1e222c73aC0d5D44bEbC16Cadead3"
  ],
  "numDeployments": 1,
  "solcInputHash": "504c552c4fc11ad7d3509b46fa178c25",
  "bytecode": "0x608060405234801561001057600080fd5b50604051610f69380380610f6983398101604081905261002f916100c5565b61003833610075565b336000908152600160208190526040808320805460ff1990811684179091556001600160a01b0394909416835290912080549092161790556100f5565b600080546001600160a01b038381166001600160a01b0319831681178455604051919092169283917f8be0079c531659141344cd1fd0a4f28419497f9722a3daafe3b4186f6b6457e09190a35050565b6000602082840312156100d757600080fd5b81516001600160a01b03811681146100ee57600080fd5b9392505050565b610e65806101046000396000f3fe608060405234801561001057600080fd5b50600436106100885760003560e01c8063ac0679a61161005b578063ac0679a61461012b578063af0dbe541461013e578063b61d27f614610161578063f2fde38b1461018257600080fd5b80631626ba7e1461008d5780635d3a8999146100d6578063715018a6146100f95780638da5cb5b14610103575b600080fd5b6100a061009b366004610b45565b610195565b6040517fffffffff0000000000000000000000000000000000000000000000000000000090911681526020015b60405180910390f35b6100e96100e4366004610bc0565b610232565b60405190151581526020016100cd565b61010161026f565b005b60005460405173ffffffffffffffffffffffffffffffffffffffff90911681526020016100cd565b610101610139366004610cc2565b610301565b6100e961014c366004610cfe565b60016020526000908152604090205460ff1681565b61017461016f366004610d19565b610410565b6040516100cd929190610d73565b610101610190366004610cfe565b610514565b60006101d78484848080601f01602080910402602001604051908101604052809392919081815260200183838082843760009201919091525061023292505050565b15156001141561020857507f1626ba7e0000000000000000000000000000000000000000000000000000000061022b565b507fffffffff000000000000000000000000000000000000000000000000000000005b9392505050565b60008061023f8484610644565b73ffffffffffffffffffffffffffffffffffffffff1660009081526001602052604090205460ff16949350505050565b60005473ffffffffffffffffffffffffffffffffffffffff1633146102f5576040517f08c379a000000000000000000000000000000000000000000000000000000000815260206004820181905260248201527f4f776e61626c653a2063616c6c6572206973206e6f7420746865206f776e657260448201526064015b60405180910390fd5b6102ff6000610668565b565b60005473ffffffffffffffffffffffffffffffffffffffff163314610382576040517f08c379a000000000000000000000000000000000000000000000000000000000815260206004820181905260248201527f4f776e61626c653a2063616c6c6572206973206e6f7420746865206f776e657260448201526064016102ec565b73ffffffffffffffffffffffffffffffffffffffff821660008181526001602090815260409182902080547fffffffffffffffffffffffffffffffffffffffffffffffffffffffffffffff00168515159081179091558251938452908301527fb43d5232746338e9c1144f9527dfc24742e0c8ff638df3bb5d21cefbb83480f2910160405180910390a15050565b6000805460609073ffffffffffffffffffffffffffffffffffffffff163314610495576040517f08c379a000000000000000000000000000000000000000000000000000000000815260206004820181905260248201527f4f776e61626c653a2063616c6c6572206973206e6f7420746865206f776e657260448201526064016102ec565b6000808773ffffffffffffffffffffffffffffffffffffffff168787876040516104c0929190610df0565b60006040518083038185875af1925050503d80600081146104fd576040519150601f19603f3d011682016040523d82523d6000602084013e610502565b606091505b50909450925050505b94509492505050565b60005473ffffffffffffffffffffffffffffffffffffffff163314610595576040517f08c379a000000000000000000000000000000000000000000000000000000000815260206004820181905260248201527f4f776e61626c653a2063616c6c6572206973206e6f7420746865206f776e657260448201526064016102ec565b73ffffffffffffffffffffffffffffffffffffffff8116610638576040517f08c379a000000000000000000000000000000000000000000000000000000000815260206004820152602660248201527f4f776e61626c653a206e6577206f776e657220697320746865207a65726f206160448201527f646472657373000000000000000000000000000000000000000000000000000060648201526084016102ec565b61064181610668565b50565b600080600061065385856106dd565b915091506106608161074d565b509392505050565b6000805473ffffffffffffffffffffffffffffffffffffffff8381167fffffffffffffffffffffffff0000000000000000000000000000000000000000831681178455604051919092169283917f8be0079c531659141344cd1fd0a4f28419497f9722a3daafe3b4186f6b6457e09190a35050565b6000808251604114156107145760208301516040840151606085015160001a610708878285856109a6565b94509450505050610746565b82516040141561073e5760208301516040840151610733868383610abb565b935093505050610746565b506000905060025b9250929050565b600081600481111561076157610761610e00565b141561076a5750565b600181600481111561077e5761077e610e00565b14156107e6576040517f08c379a000000000000000000000000000000000000000000000000000000000815260206004820152601860248201527f45434453413a20696e76616c6964207369676e6174757265000000000000000060448201526064016102ec565b60028160048111156107fa576107fa610e00565b1415610862576040517f08c379a000000000000000000000000000000000000000000000000000000000815260206004820152601f60248201527f45434453413a20696e76616c6964207369676e6174757265206c656e6774680060448201526064016102ec565b600381600481111561087657610876610e00565b1415610904576040517f08c379a000000000000000000000000000000000000000000000000000000000815260206004820152602260248201527f45434453413a20696e76616c6964207369676e6174757265202773272076616c60448201527f756500000000000000000000000000000000000000000000000000000000000060648201526084016102ec565b600481600481111561091857610918610e00565b1415610641576040517f08c379a000000000000000000000000000000000000000000000000000000000815260206004820152602260248201527f45434453413a20696e76616c6964207369676e6174757265202776272076616c60448201527f756500000000000000000000000000000000000000000000000000000000000060648201526084016102ec565b6000807f7fffffffffffffffffffffffffffffff5d576e7357a4501ddfe92f46681b20a08311156109dd575060009050600361050b565b8460ff16601b141580156109f557508460ff16601c14155b15610a06575060009050600461050b565b6040805160008082526020820180845289905260ff881692820192909252606081018690526080810185905260019060a0016020604051602081039080840390855afa158015610a5a573d6000803e3d6000fd5b50506040517fffffffffffffffffffffffffffffffffffffffffffffffffffffffffffffffe0015191505073ffffffffffffffffffffffffffffffffffffffff8116610aae5760006001925092505061050b565b9660009650945050505050565b6000807f7fffffffffffffffffffffffffffffffffffffffffffffffffffffffffffffff831660ff84901c601b01610af5878288856109a6565b935093505050935093915050565b60008083601f840112610b1557600080fd5b50813567ffffffffffffffff811115610b2d57600080fd5b60208301915083602082850101111561074657600080fd5b600080600060408486031215610b5a57600080fd5b83359250602084013567ffffffffffffffff811115610b7857600080fd5b610b8486828701610b03565b9497909650939450505050565b7f4e487b7100000000000000000000000000000000000000000000000000000000600052604160045260246000fd5b60008060408385031215610bd357600080fd5b82359150602083013567ffffffffffffffff80821115610bf257600080fd5b818501915085601f830112610c0657600080fd5b813581811115610c1857610c18610b91565b604051601f82017fffffffffffffffffffffffffffffffffffffffffffffffffffffffffffffffe0908116603f01168101908382118183101715610c5e57610c5e610b91565b81604052828152886020848701011115610c7757600080fd5b8260208601602083013760006020848301015280955050505050509250929050565b803573ffffffffffffffffffffffffffffffffffffffff81168114610cbd57600080fd5b919050565b60008060408385031215610cd557600080fd5b610cde83610c99565b915060208301358015158114610cf357600080fd5b809150509250929050565b600060208284031215610d1057600080fd5b61022b82610c99565b60008060008060608587031215610d2f57600080fd5b610d3885610c99565b935060208501359250604085013567ffffffffffffffff811115610d5b57600080fd5b610d6787828801610b03565b95989497509550505050565b821515815260006020604081840152835180604085015260005b81811015610da957858101830151858201606001528201610d8d565b81811115610dbb576000606083870101525b50601f017fffffffffffffffffffffffffffffffffffffffffffffffffffffffffffffffe01692909201606001949350505050565b8183823760009101908152919050565b7f4e487b7100000000000000000000000000000000000000000000000000000000600052602160045260246000fdfea2646970667358221220b5a4c59d05cd4fd9cbe41401331cb36c635058ff057fd32432a5458fea79f78f64736f6c634300080b0033",
  "devdoc": {
    "kind": "dev",
    "methods": {
      "owner()": {
        "details": "Returns the address of the current owner."
      },
      "renounceOwnership()": {
        "details": "Leaves the contract without owner. It will not be possible to call `onlyOwner` functions anymore. Can only be called by the current owner. NOTE: Renouncing ownership will leave the contract without an owner, thereby removing any functionality that is only available to the owner."
      },
      "transferOwnership(address)": {
        "details": "Transfers ownership of the contract to a new account (`newOwner`). Can only be called by the current owner."
      }
    },
    "version": 1
  },
  "userdoc": {
    "kind": "user",
    "methods": {},
    "version": 1
  },
  "storageLayout": {
    "storage": [
      {
        "astId": 7,
        "contract": "contracts/VoteProxySigner.sol:VoteProxySigner",
        "label": "_owner",
        "offset": 0,
        "slot": "0",
        "type": "t_address"
      },
      {
        "astId": 1880,
        "contract": "contracts/VoteProxySigner.sol:VoteProxySigner",
        "label": "voter",
        "offset": 0,
        "slot": "1",
        "type": "t_mapping(t_address,t_bool)"
      }
    ],
    "types": {
      "t_address": {
        "encoding": "inplace",
        "label": "address",
        "numberOfBytes": "20"
      },
      "t_bool": {
        "encoding": "inplace",
        "label": "bool",
        "numberOfBytes": "1"
      },
      "t_mapping(t_address,t_bool)": {
        "encoding": "mapping",
        "key": "t_address",
        "label": "mapping(address => bool)",
        "numberOfBytes": "32",
        "value": "t_bool"
      }
    }
  }
}