{
  "address": "0x26E6df2A1B11E551e6e9eF1a01C528223d9CFcc1",
  "abi": [
    {
      "inputs": [],
      "stateMutability": "nonpayable",
      "type": "constructor"
    },
    {
      "anonymous": false,
      "inputs": [
        {
          "indexed": false,
          "internalType": "address",
          "name": "branchAddr",
          "type": "address"
        },
        {
          "indexed": false,
          "internalType": "address",
          "name": "parentToken",
          "type": "address"
        },
        {
          "indexed": false,
          "internalType": "uint256",
          "name": "amount",
          "type": "uint256"
        },
        {
          "indexed": false,
          "internalType": "address",
          "name": "issuer",
          "type": "address"
        },
        {
          "indexed": false,
          "internalType": "uint256",
          "name": "branchId",
          "type": "uint256"
        }
      ],
      "name": "SplitBranch",
      "type": "event"
    },
    {
      "inputs": [
        {
          "internalType": "address",
          "name": "parentToken",
          "type": "address"
        },
        {
          "internalType": "uint256",
          "name": "amount",
          "type": "uint256"
        },
        {
          "internalType": "string",
          "name": "name",
          "type": "string"
        },
        {
          "internalType": "string",
          "name": "imageUrl",
          "type": "string"
        },
        {
          "internalType": "string",
          "name": "tokenName",
          "type": "string"
        },
        {
          "internalType": "string",
          "name": "tokenSymbol",
          "type": "string"
        }
      ],
      "name": "splitBranch",
      "outputs": [
        {
          "internalType": "address",
          "name": "",
          "type": "address"
        }
      ],
      "stateMutability": "nonpayable",
      "type": "function"
    }
  ],
  "transactionHash": "0x43db9028bad9883c990444969634e3a3dfc302ff18782cba4a5f958f6f6e6ae1",
  "args": [],
  "numDeployments": 1,
  "solcInputHash": "7e02457c4feee2908f29421fd4c6e2bd",
  "bytecode": "0x60a0604052600060015534801561001557600080fd5b5060405161002290610050565b604051809103906000f08015801561003e573d6000803e3d6000fd5b506001600160a01b031660805261005d565b615d948061080f83390190565b608051610798610077600039600060e501526107986000f3fe608060405234801561001057600080fd5b506004361061002b5760003560e01c806302235d1514610030575b600080fd5b61004361003e366004610528565b61006c565b60405173ffffffffffffffffffffffffffffffffffffffff909116815260200160405180910390f35b600060015486116100de576040517f08c379a000000000000000000000000000000000000000000000000000000000815260206004820152601960248201527f4d5553545f475245415445525f5448414e5f4d494e494d554d0000000000000060448201526064015b60405180910390fd5b60006101097f0000000000000000000000000000000000000000000000000000000000000000610348565b6040517f2478060000000000000000000000000000000000000000000000000000000000815290915073ffffffffffffffffffffffffffffffffffffffff821690632478060090610168908b9033908b908b908b908b90600401610659565b600060405180830381600087803b15801561018257600080fd5b505af1158015610196573d6000803e3d6000fd5b50506040805160608101825273ffffffffffffffffffffffffffffffffffffffff8581168083528d8216602080850182815233868801818152600080548152600294859052899020975188549088167fffffffffffffffffffffffff00000000000000000000000000000000000000009182161789559251600189018054918916918516919091179055519690920180549690951695169490941790925592517f23b872dd00000000000000000000000000000000000000000000000000000000815260048101929092526024820192909252604481018b90529092506323b872dd91506064016020604051808303816000875af115801561029c573d6000803e3d6000fd5b505050506040513d601f19601f820116820180604052508101906102c091906106d9565b506000546040805173ffffffffffffffffffffffffffffffffffffffff84811682528b1660208201528082018a90523360608201526080810192909252517fe7ba7c736ee01b2bba2f5926d861c1813ceb0babfe0cd485768222ceb296e1d79181900360a00190a160008054908061033783610702565b909155509098975050505050505050565b60006040517f3d602d80600a3d3981f3363d3d373d3d3d363d7300000000000000000000000081528260601b60148201527f5af43d82803e903d91602b57fd5bf3000000000000000000000000000000000060288201526037816000f091505073ffffffffffffffffffffffffffffffffffffffff8116610425576040517f08c379a000000000000000000000000000000000000000000000000000000000815260206004820152601660248201527f455243313136373a20637265617465206661696c65640000000000000000000060448201526064016100d5565b919050565b803573ffffffffffffffffffffffffffffffffffffffff8116811461042557600080fd5b7f4e487b7100000000000000000000000000000000000000000000000000000000600052604160045260246000fd5b600082601f83011261048e57600080fd5b813567ffffffffffffffff808211156104a9576104a961044e565b604051601f83017fffffffffffffffffffffffffffffffffffffffffffffffffffffffffffffffe0908116603f011681019082821181831017156104ef576104ef61044e565b8160405283815286602085880101111561050857600080fd5b836020870160208301376000602085830101528094505050505092915050565b60008060008060008060c0878903121561054157600080fd5b61054a8761042a565b955060208701359450604087013567ffffffffffffffff8082111561056e57600080fd5b61057a8a838b0161047d565b9550606089013591508082111561059057600080fd5b61059c8a838b0161047d565b945060808901359150808211156105b257600080fd5b6105be8a838b0161047d565b935060a08901359150808211156105d457600080fd5b506105e189828a0161047d565b9150509295509295509295565b6000815180845260005b81811015610614576020818501810151868301820152016105f8565b81811115610626576000602083870101525b50601f017fffffffffffffffffffffffffffffffffffffffffffffffffffffffffffffffe0169290920160200192915050565b600073ffffffffffffffffffffffffffffffffffffffff808916835280881660208401525060c0604083015261069260c08301876105ee565b82810360608401526106a481876105ee565b905082810360808401526106b881866105ee565b905082810360a08401526106cc81856105ee565b9998505050505050505050565b6000602082840312156106eb57600080fd5b815180151581146106fb57600080fd5b9392505050565b60007fffffffffffffffffffffffffffffffffffffffffffffffffffffffffffffffff82141561075b577f4e487b7100000000000000000000000000000000000000000000000000000000600052601160045260246000fd5b506001019056fea26469706673582212201a111929da35006ccc8e5e43dcc9b1ea7be0c0b97759eee4f51232351c906ae464736f6c634300080b00336080604052600580546001600160a01b03191673469788fe6e9e9681c6ebf3bf78e7fd26fc01544617905534801561003657600080fd5b5061004033610045565b610095565b600080546001600160a01b038381166001600160a01b0319831681178455604051919092169283917f8be0079c531659141344cd1fd0a4f28419497f9722a3daafe3b4186f6b6457e09190a35050565b615cef80620000a56000396000f3fe60806040523480156200001157600080fd5b50600436106200014f5760003560e01c806386728d2c11620000c0578063b21c7935116200008b578063c6ac39f0116200006e578063c6ac39f014620002c4578063c6c363d114620002ce578063f2fde38b14620002e557600080fd5b8063b21c79351462000296578063b9ce7d3b14620002ad57600080fd5b806386728d2c14620002285780638da5cb5b146200023f5780639f13e2c01462000268578063b183136b146200027f57600080fd5b80634a3e04e0116200011e5780637392493511620001015780637392493514620001e157806379203dc414620001f8578063858088f4146200021157600080fd5b80634a3e04e014620001c0578063715018a614620001d757600080fd5b8063160fb908146200015457806324780600146200016d5780632cb7ce38146200018457806346020da414620001a9575b600080fd5b6200016b6200016536600462001ceb565b620002fc565b005b6200016b6200017e36600462001e82565b620004b6565b6200018e62000602565b604051620001a0949392919062001fce565b60405180910390f35b6200016b620001ba3660046200204f565b62000755565b6200016b620001d1366004620020e4565b6200085e565b6200016b62000a9a565b6200016b620001f236600462002156565b62000b11565b6200020260075481565b604051908152602001620001a0565b6200016b6200022236600462002229565b62000c5c565b6200016b620002393660046200225f565b62000eb1565b60005460405173ffffffffffffffffffffffffffffffffffffffff9091168152602001620001a0565b6200016b6200027936600462001ceb565b62000f8e565b6200016b6200029036600462001ceb565b620010a7565b6200016b620002a736600462001ceb565b62001268565b62000202620002be3660046200227d565b6200138b565b6200016b620013ae565b6200016b620002df36600462001ceb565b620015b3565b6200016b620002f63660046200225f565b6200179f565b60005473ffffffffffffffffffffffffffffffffffffffff163314620003695760405162461bcd60e51b815260206004820181905260248201527f4f776e61626c653a2063616c6c6572206973206e6f7420746865206f776e657260448201526064015b60405180910390fd5b600260005474010000000000000000000000000000000000000000900460ff1660028111156200039d576200039d620022aa565b14620003ec5760405162461bcd60e51b815260206004820152601560248201527f4e4f545f494e495449414c495a45445f564f5445520000000000000000000000604482015260640162000360565b6005546040517fbd86e5080000000000000000000000000000000000000000000000000000000081526004810183905273ffffffffffffffffffffffffffffffffffffffff909116602482018190529063bd86e50890604401600060405180830381600087803b1580156200046057600080fd5b505af115801562000475573d6000803e3d6000fd5b505050507f83eb99add5f9cf2d3a35ecd541b0f5289e3909bfef983d2c29feb719e4cdc0c081604051620004ab91815260200190565b60405180910390a150565b6000805474010000000000000000000000000000000000000000900460ff166002811115620004e957620004e9620022aa565b14620005385760405162461bcd60e51b815260206004820152601460248201527f416c726561647920696e697469616c697a656421000000000000000000000000604482015260640162000360565b600180547fffffffffffffffffffffffff00000000000000000000000000000000000000001673ffffffffffffffffffffffffffffffffffffffff881617905583516200058d90600390602087019062001c29565b508251620005a390600490602086019062001c29565b50620005af85620018a1565b620005bb828262001916565b5050600080547fffffffffffffffffffffff00ffffffffffffffffffffffffffffffffffffffff167401000000000000000000000000000000000000000017905550505050565b600180546002546003805473ffffffffffffffffffffffffffffffffffffffff9384169492909316926200063690620022d9565b80601f01602080910402602001604051908101604052809291908181526020018280546200066490620022d9565b8015620006b55780601f106200068957610100808354040283529160200191620006b5565b820191906000526020600020905b8154815290600101906020018083116200069757829003601f168201915b505050505090806003018054620006cc90620022d9565b80601f0160208091040260200160405190810160405280929190818152602001828054620006fa90620022d9565b80156200074b5780601f106200071f576101008083540402835291602001916200074b565b820191906000526020600020905b8154815290600101906020018083116200072d57829003601f168201915b5050505050905084565b60005473ffffffffffffffffffffffffffffffffffffffff163314620007be5760405162461bcd60e51b815260206004820181905260248201527f4f776e61626c653a2063616c6c6572206973206e6f7420746865206f776e6572604482015260640162000360565b600a815110620008115760405162461bcd60e51b815260206004820152601360248201527f4558434545445f5041594f55545f4c494d495400000000000000000000000000604482015260640162000360565b60005b81518110156200085a57620008458282815181106200083757620008376200232f565b6020026020010151620015b3565b8062000851816200238d565b91505062000814565b5050565b60008311620008b05760405162461bcd60e51b815260206004820152600f60248201527f4e4f5f5a45524f5f504159504f55540000000000000000000000000000000000604482015260640162000360565b33600090815260086020526040902060018101546002820154620008d59086620023c9565b1115620009255760405162461bcd60e51b815260206004820152600c60248201527f4558434545445f544f54414c0000000000000000000000000000000000000000604482015260640162000360565b838160020160008282546200093b9190620023c9565b909155506200094e905033308662001a1f565b6040805160a08101825285815233602080830191825273ffffffffffffffffffffffffffffffffffffffff87811684860190815260608501888152600060808701819052600a54815260098552969096208551815593516001850180549184167fffffffffffffffffffffffff00000000000000000000000000000000000000009283161790559051600285018054919093169116179055925180519293919262000a00926003850192019062001c29565b5060809190910151600490910180547fffffffffffffffffffffffffffffffffffffffffffffffffffffffffffffff0016911515919091179055600a546040517f40f42e917f6cb9cc5149c2fb0ff874641d5a285b08ec9941b151402afdce003d9162000a75918790339088908890620023e4565b60405180910390a1600a805490600062000a8f836200238d565b919050555050505050565b60005473ffffffffffffffffffffffffffffffffffffffff16331462000b035760405162461bcd60e51b815260206004820181905260248201527f4f776e61626c653a2063616c6c6572206973206e6f7420746865206f776e6572604482015260640162000360565b62000b0f6000620018a1565b565b60005473ffffffffffffffffffffffffffffffffffffffff16331462000b7a5760405162461bcd60e51b815260206004820181905260248201527f4f776e61626c653a2063616c6c6572206973206e6f7420746865206f776e6572604482015260640162000360565b600a81511062000bcd5760405162461bcd60e51b815260206004820152601260248201527f4558434545445f42415443485f4c494d49540000000000000000000000000000604482015260640162000360565b60005b81518110156200085a5762000c4782828151811062000bf35762000bf36200232f565b60200260200101516000015183838151811062000c145762000c146200232f565b60200260200101516020015184848151811062000c355762000c356200232f565b60200260200101516040015162000c5c565b8062000c53816200238d565b91505062000bd0565b60005473ffffffffffffffffffffffffffffffffffffffff16331462000cc55760405162461bcd60e51b815260206004820181905260248201527f4f776e61626c653a2063616c6c6572206973206e6f7420746865206f776e6572604482015260640162000360565b6001546040517f70a0823100000000000000000000000000000000000000000000000000000000815230600482015260009173ffffffffffffffffffffffffffffffffffffffff16906370a0823190602401602060405180830381865afa15801562000d35573d6000803e3d6000fd5b505050506040513d601f19601f8201168201806040525081019062000d5b91906200242b565b9050808260075462000d6e9190620023c9565b111562000dbe5760405162461bcd60e51b815260206004820152601660248201527f4e4f545f4558434545445f544f4b454e5f4c494d495400000000000000000000604482015260640162000360565b73ffffffffffffffffffffffffffffffffffffffff8416600090815260086020526040812080549091859183919062000df9908490620023c9565b925050819055508381600101600082825462000e169190620023c9565b925050819055508281600301600082825462000e339190620023c9565b92505081905550826007600082825462000e4e9190620023c9565b90915550506040805173ffffffffffffffffffffffffffffffffffffffff87168152602081018690529081018490527f6f4433b6719ac1e60f01e486a2560c84d86c88f9efdb85986fa4a5b38fd7c6f29060600160405180910390a15050505050565b60005473ffffffffffffffffffffffffffffffffffffffff16331462000f1a5760405162461bcd60e51b815260206004820181905260248201527f4f776e61626c653a2063616c6c6572206973206e6f7420746865206f776e6572604482015260640162000360565b600580547fffffffffffffffffffffffff00000000000000000000000000000000000000001673ffffffffffffffffffffffffffffffffffffffff83169081179091556040519081527f54413e4029c4b34d3b2d59e86cbd4e4c704bd444e9fb1ade66859555d919577590602001620004ab565b6000811162000fe05760405162461bcd60e51b815260206004820152600d60248201527f4e4f5f434c41494d5f5a45524f00000000000000000000000000000000000000604482015260640162000360565b3360009081526008602052604090208054821115620010425760405162461bcd60e51b815260206004820152601260248201527f4558434545445f434c41494d5f4c494d49540000000000000000000000000000604482015260640162000360565b8181600001600082825462001058919062002445565b909155506200106a9050338362001ace565b60408051338152602081018490527f5d425a3a6a3d5a60fbf147dc6659ce3dfeb701fc44fe90058c32783b8807c574910160405180910390a15050565b60005473ffffffffffffffffffffffffffffffffffffffff163314620011105760405162461bcd60e51b815260206004820181905260248201527f4f776e61626c653a2063616c6c6572206973206e6f7420746865206f776e6572604482015260640162000360565b60008111620011625760405162461bcd60e51b815260206004820152601860248201527f4e4f5f57495448445241575f554e434c41494d5f5a45524f0000000000000000604482015260640162000360565b6001546040517f70a0823100000000000000000000000000000000000000000000000000000000815230600482015260009173ffffffffffffffffffffffffffffffffffffffff16906370a0823190602401602060405180830381865afa158015620011d2573d6000803e3d6000fd5b505050506040513d601f19601f82011682018060405250810190620011f891906200242b565b9050600754816200120a919062002445565b8211156200125b5760405162461bcd60e51b815260206004820152601260248201527f4558434545445f434c41494d5f4c494d49540000000000000000000000000000604482015260640162000360565b6200085a30338462001b61565b3360009081526008602090815260408083208484526009909252909120600481015460ff1615620012dc5760405162461bcd60e51b815260206004820152600e60248201527f414c52454144595f5041594f5554000000000000000000000000000000000000604482015260640162000360565b6004810180547fffffffffffffffffffffffffffffffffffffffffffffffffffffffffffffff0016600117905580546002830180546000906200132190849062002445565b9091555050600281015481546200135391309173ffffffffffffffffffffffffffffffffffffffff9091169062001a1f565b6040518381527fb3f882fcf2ac91c3f9a7d0b53d22e3893f3992dcffbf4b1ac49a07706eb225dc9060200160405180910390a1505050565b6000826200139a83866200245f565b620013a691906200249f565b949350505050565b60005473ffffffffffffffffffffffffffffffffffffffff163314620014175760405162461bcd60e51b815260206004820181905260248201527f4f776e61626c653a2063616c6c6572206973206e6f7420746865206f776e6572604482015260640162000360565b600160005474010000000000000000000000000000000000000000900460ff1660028111156200144b576200144b620022aa565b146200149a5760405162461bcd60e51b815260206004820152601160248201527f4e4f545f50454e44494e475f5354415445000000000000000000000000000000604482015260640162000360565b6000805473ffffffffffffffffffffffffffffffffffffffff16604051620014c29062001cb8565b73ffffffffffffffffffffffffffffffffffffffff9091168152602001604051809103906000f080158015620014fc573d6000803e3d6000fd5b50600680547fffffffffffffffffffffffff00000000000000000000000000000000000000001673ffffffffffffffffffffffffffffffffffffffff8316908117909155600080547fffffffffffffffffffffff00ffffffffffffffffffffffffffffffffffffffff16740200000000000000000000000000000000000000001790556040519081529091507f63a40fb1ca0677d69a93f19d3e96304954abf2c58888d1a1f940d91d5a550a9090602001620004ab565b60005473ffffffffffffffffffffffffffffffffffffffff1633146200161c5760405162461bcd60e51b815260206004820181905260248201527f4f776e61626c653a2063616c6c6572206973206e6f7420746865206f776e6572604482015260640162000360565b6000818152600960205260409020600481015460ff1615620016815760405162461bcd60e51b815260206004820152600e60248201527f414c52454144595f5041594f5554000000000000000000000000000000000000604482015260640162000360565b6200169130826000015462001bc9565b60018082015473ffffffffffffffffffffffffffffffffffffffff16600090815260086020526040812083549281015460038201549193620016d6929091906200138b565b905080826003016000828254620016ee919062002445565b909155505082546002830180546000906200170b90849062002445565b90915550506004830180547fffffffffffffffffffffffffffffffffffffffffffffffffffffffffffffff0016600117905560028301546200176690309073ffffffffffffffffffffffffffffffffffffffff168362001b61565b6040518481527fcea6422162818bdbb05ae884f2244db6752cc8adaae0c48f1197993032cc2a9d9060200160405180910390a150505050565b60005473ffffffffffffffffffffffffffffffffffffffff163314620018085760405162461bcd60e51b815260206004820181905260248201527f4f776e61626c653a2063616c6c6572206973206e6f7420746865206f776e6572604482015260640162000360565b73ffffffffffffffffffffffffffffffffffffffff8116620018935760405162461bcd60e51b815260206004820152602660248201527f4f776e61626c653a206e6577206f776e657220697320746865207a65726f206160448201527f6464726573730000000000000000000000000000000000000000000000000000606482015260840162000360565b6200189e81620018a1565b50565b6000805473ffffffffffffffffffffffffffffffffffffffff8381167fffffffffffffffffffffffff0000000000000000000000000000000000000000831681178455604051919092169283917f8be0079c531659141344cd1fd0a4f28419497f9722a3daafe3b4186f6b6457e09190a35050565b6000805474010000000000000000000000000000000000000000900460ff166002811115620019495762001949620022aa565b14620019985760405162461bcd60e51b815260206004820152601160248201527f4e4f545f494e5f4e4f4e455f5354415445000000000000000000000000000000604482015260640162000360565b60008282604051620019aa9062001cc6565b620019b7929190620024db565b604051809103906000f080158015620019d4573d6000803e3d6000fd5b50600280547fffffffffffffffffffffffff00000000000000000000000000000000000000001673ffffffffffffffffffffffffffffffffffffffff92909216919091179055505050565b6002546040517f23b872dd00000000000000000000000000000000000000000000000000000000815273ffffffffffffffffffffffffffffffffffffffff8581166004830152848116602483015260448201849052909116906323b872dd906064015b6020604051808303816000875af115801562001aa2573d6000803e3d6000fd5b505050506040513d601f19601f8201168201806040525081019062001ac891906200250d565b50505050565b6002546040517f575dbebe00000000000000000000000000000000000000000000000000000000815273ffffffffffffffffffffffffffffffffffffffff8481166004830152602482018490529091169063575dbebe906044015b600060405180830381600087803b15801562001b4457600080fd5b505af115801562001b59573d6000803e3d6000fd5b505050505050565b6001546040517f23b872dd00000000000000000000000000000000000000000000000000000000815273ffffffffffffffffffffffffffffffffffffffff8581166004830152848116602483015260448201849052909116906323b872dd9060640162001a82565b6002546040517f63fb8cf900000000000000000000000000000000000000000000000000000000815273ffffffffffffffffffffffffffffffffffffffff848116600483015260248201849052909116906363fb8cf99060440162001b29565b82805462001c3790620022d9565b90600052602060002090601f01602090048101928262001c5b576000855562001ca6565b82601f1062001c7657805160ff191683800117855562001ca6565b8280016001018555821562001ca6579182015b8281111562001ca657825182559160200191906001019062001c89565b5062001cb492915062001cd4565b5090565b610f69806200253283390190565b61281f806200349b83390190565b5b8082111562001cb4576000815560010162001cd5565b60006020828403121562001cfe57600080fd5b5035919050565b803573ffffffffffffffffffffffffffffffffffffffff8116811462001d2a57600080fd5b919050565b7f4e487b7100000000000000000000000000000000000000000000000000000000600052604160045260246000fd5b6040516060810167ffffffffffffffff8111828210171562001d845762001d8462001d2f565b60405290565b604051601f82017fffffffffffffffffffffffffffffffffffffffffffffffffffffffffffffffe016810167ffffffffffffffff8111828210171562001dd45762001dd462001d2f565b604052919050565b600067ffffffffffffffff83111562001df95762001df962001d2f565b62001e2c60207fffffffffffffffffffffffffffffffffffffffffffffffffffffffffffffffe0601f8601160162001d8a565b905082815283838301111562001e4157600080fd5b828260208301376000602084830101529392505050565b600082601f83011262001e6a57600080fd5b62001e7b8383356020850162001ddc565b9392505050565b60008060008060008060c0878903121562001e9c57600080fd5b62001ea78762001d05565b955062001eb76020880162001d05565b9450604087013567ffffffffffffffff8082111562001ed557600080fd5b62001ee38a838b0162001e58565b9550606089013591508082111562001efa57600080fd5b62001f088a838b0162001e58565b9450608089013591508082111562001f1f57600080fd5b62001f2d8a838b0162001e58565b935060a089013591508082111562001f4457600080fd5b5062001f5389828a0162001e58565b9150509295509295509295565b6000815180845260005b8181101562001f885760208185018101518683018201520162001f6a565b8181111562001f9b576000602083870101525b50601f017fffffffffffffffffffffffffffffffffffffffffffffffffffffffffffffffe0169290920160200192915050565b600073ffffffffffffffffffffffffffffffffffffffff80871683528086166020840152506080604083015262002009608083018562001f60565b82810360608401526200201d818562001f60565b979650505050505050565b600067ffffffffffffffff82111562002045576200204562001d2f565b5060051b60200190565b600060208083850312156200206357600080fd5b823567ffffffffffffffff8111156200207b57600080fd5b8301601f810185136200208d57600080fd5b8035620020a46200209e8262002028565b62001d8a565b81815260059190911b82018301908381019087831115620020c457600080fd5b928401925b828410156200201d57833582529284019290840190620020c9565b600080600060608486031215620020fa57600080fd5b833592506200210c6020850162001d05565b9150604084013567ffffffffffffffff8111156200212957600080fd5b8401601f810186136200213b57600080fd5b6200214c8682356020840162001ddc565b9150509250925092565b600060208083850312156200216a57600080fd5b823567ffffffffffffffff8111156200218257600080fd5b8301601f810185136200219457600080fd5b8035620021a56200209e8262002028565b81815260609182028301840191848201919088841115620021c557600080fd5b938501935b838510156200221d5780858a031215620021e45760008081fd5b620021ee62001d5e565b620021f98662001d05565b815285870135878201526040808701359082015283529384019391850191620021ca565b50979650505050505050565b6000806000606084860312156200223f57600080fd5b6200224a8462001d05565b95602085013595506040909401359392505050565b6000602082840312156200227257600080fd5b62001e7b8262001d05565b6000806000606084860312156200229357600080fd5b505081359360208301359350604090920135919050565b7f4e487b7100000000000000000000000000000000000000000000000000000000600052602160045260246000fd5b600181811c90821680620022ee57607f821691505b6020821081141562002329577f4e487b7100000000000000000000000000000000000000000000000000000000600052602260045260246000fd5b50919050565b7f4e487b7100000000000000000000000000000000000000000000000000000000600052603260045260246000fd5b7f4e487b7100000000000000000000000000000000000000000000000000000000600052601160045260246000fd5b60007fffffffffffffffffffffffffffffffffffffffffffffffffffffffffffffffff821415620023c257620023c26200235e565b5060010190565b60008219821115620023df57620023df6200235e565b500190565b858152846020820152600073ffffffffffffffffffffffffffffffffffffffff808616604084015280851660608401525060a060808301526200201d60a083018462001f60565b6000602082840312156200243e57600080fd5b5051919050565b6000828210156200245a576200245a6200235e565b500390565b6000817fffffffffffffffffffffffffffffffffffffffffffffffffffffffffffffffff04831182151516156200249a576200249a6200235e565b500290565b600082620024d6577f4e487b7100000000000000000000000000000000000000000000000000000000600052601260045260246000fd5b500490565b604081526000620024f0604083018562001f60565b828103602084015262002504818562001f60565b95945050505050565b6000602082840312156200252057600080fd5b8151801515811462001e7b57600080fdfe608060405234801561001057600080fd5b50604051610f69380380610f6983398101604081905261002f916100c5565b61003833610075565b336000908152600160208190526040808320805460ff1990811684179091556001600160a01b0394909416835290912080549092161790556100f5565b600080546001600160a01b038381166001600160a01b0319831681178455604051919092169283917f8be0079c531659141344cd1fd0a4f28419497f9722a3daafe3b4186f6b6457e09190a35050565b6000602082840312156100d757600080fd5b81516001600160a01b03811681146100ee57600080fd5b9392505050565b610e65806101046000396000f3fe608060405234801561001057600080fd5b50600436106100885760003560e01c8063ac0679a61161005b578063ac0679a61461012b578063af0dbe541461013e578063b61d27f614610161578063f2fde38b1461018257600080fd5b80631626ba7e1461008d5780635d3a8999146100d6578063715018a6146100f95780638da5cb5b14610103575b600080fd5b6100a061009b366004610b45565b610195565b6040517fffffffff0000000000000000000000000000000000000000000000000000000090911681526020015b60405180910390f35b6100e96100e4366004610bc0565b610232565b60405190151581526020016100cd565b61010161026f565b005b60005460405173ffffffffffffffffffffffffffffffffffffffff90911681526020016100cd565b610101610139366004610cc2565b610301565b6100e961014c366004610cfe565b60016020526000908152604090205460ff1681565b61017461016f366004610d19565b610410565b6040516100cd929190610d73565b610101610190366004610cfe565b610514565b60006101d78484848080601f01602080910402602001604051908101604052809392919081815260200183838082843760009201919091525061023292505050565b15156001141561020857507f1626ba7e0000000000000000000000000000000000000000000000000000000061022b565b507fffffffff000000000000000000000000000000000000000000000000000000005b9392505050565b60008061023f8484610644565b73ffffffffffffffffffffffffffffffffffffffff1660009081526001602052604090205460ff16949350505050565b60005473ffffffffffffffffffffffffffffffffffffffff1633146102f5576040517f08c379a000000000000000000000000000000000000000000000000000000000815260206004820181905260248201527f4f776e61626c653a2063616c6c6572206973206e6f7420746865206f776e657260448201526064015b60405180910390fd5b6102ff6000610668565b565b60005473ffffffffffffffffffffffffffffffffffffffff163314610382576040517f08c379a000000000000000000000000000000000000000000000000000000000815260206004820181905260248201527f4f776e61626c653a2063616c6c6572206973206e6f7420746865206f776e657260448201526064016102ec565b73ffffffffffffffffffffffffffffffffffffffff821660008181526001602090815260409182902080547fffffffffffffffffffffffffffffffffffffffffffffffffffffffffffffff00168515159081179091558251938452908301527fb43d5232746338e9c1144f9527dfc24742e0c8ff638df3bb5d21cefbb83480f2910160405180910390a15050565b6000805460609073ffffffffffffffffffffffffffffffffffffffff163314610495576040517f08c379a000000000000000000000000000000000000000000000000000000000815260206004820181905260248201527f4f776e61626c653a2063616c6c6572206973206e6f7420746865206f776e657260448201526064016102ec565b6000808773ffffffffffffffffffffffffffffffffffffffff168787876040516104c0929190610df0565b60006040518083038185875af1925050503d80600081146104fd576040519150601f19603f3d011682016040523d82523d6000602084013e610502565b606091505b50909450925050505b94509492505050565b60005473ffffffffffffffffffffffffffffffffffffffff163314610595576040517f08c379a000000000000000000000000000000000000000000000000000000000815260206004820181905260248201527f4f776e61626c653a2063616c6c6572206973206e6f7420746865206f776e657260448201526064016102ec565b73ffffffffffffffffffffffffffffffffffffffff8116610638576040517f08c379a000000000000000000000000000000000000000000000000000000000815260206004820152602660248201527f4f776e61626c653a206e6577206f776e657220697320746865207a65726f206160448201527f646472657373000000000000000000000000000000000000000000000000000060648201526084016102ec565b61064181610668565b50565b600080600061065385856106dd565b915091506106608161074d565b509392505050565b6000805473ffffffffffffffffffffffffffffffffffffffff8381167fffffffffffffffffffffffff0000000000000000000000000000000000000000831681178455604051919092169283917f8be0079c531659141344cd1fd0a4f28419497f9722a3daafe3b4186f6b6457e09190a35050565b6000808251604114156107145760208301516040840151606085015160001a610708878285856109a6565b94509450505050610746565b82516040141561073e5760208301516040840151610733868383610abb565b935093505050610746565b506000905060025b9250929050565b600081600481111561076157610761610e00565b141561076a5750565b600181600481111561077e5761077e610e00565b14156107e6576040517f08c379a000000000000000000000000000000000000000000000000000000000815260206004820152601860248201527f45434453413a20696e76616c6964207369676e6174757265000000000000000060448201526064016102ec565b60028160048111156107fa576107fa610e00565b1415610862576040517f08c379a000000000000000000000000000000000000000000000000000000000815260206004820152601f60248201527f45434453413a20696e76616c6964207369676e6174757265206c656e6774680060448201526064016102ec565b600381600481111561087657610876610e00565b1415610904576040517f08c379a000000000000000000000000000000000000000000000000000000000815260206004820152602260248201527f45434453413a20696e76616c6964207369676e6174757265202773272076616c60448201527f756500000000000000000000000000000000000000000000000000000000000060648201526084016102ec565b600481600481111561091857610918610e00565b1415610641576040517f08c379a000000000000000000000000000000000000000000000000000000000815260206004820152602260248201527f45434453413a20696e76616c6964207369676e6174757265202776272076616c60448201527f756500000000000000000000000000000000000000000000000000000000000060648201526084016102ec565b6000807f7fffffffffffffffffffffffffffffff5d576e7357a4501ddfe92f46681b20a08311156109dd575060009050600361050b565b8460ff16601b141580156109f557508460ff16601c14155b15610a06575060009050600461050b565b6040805160008082526020820180845289905260ff881692820192909252606081018690526080810185905260019060a0016020604051602081039080840390855afa158015610a5a573d6000803e3d6000fd5b50506040517fffffffffffffffffffffffffffffffffffffffffffffffffffffffffffffffe0015191505073ffffffffffffffffffffffffffffffffffffffff8116610aae5760006001925092505061050b565b9660009650945050505050565b6000807f7fffffffffffffffffffffffffffffffffffffffffffffffffffffffffffffff831660ff84901c601b01610af5878288856109a6565b935093505050935093915050565b60008083601f840112610b1557600080fd5b50813567ffffffffffffffff811115610b2d57600080fd5b60208301915083602082850101111561074657600080fd5b600080600060408486031215610b5a57600080fd5b83359250602084013567ffffffffffffffff811115610b7857600080fd5b610b8486828701610b03565b9497909650939450505050565b7f4e487b7100000000000000000000000000000000000000000000000000000000600052604160045260246000fd5b60008060408385031215610bd357600080fd5b82359150602083013567ffffffffffffffff80821115610bf257600080fd5b818501915085601f830112610c0657600080fd5b813581811115610c1857610c18610b91565b604051601f82017fffffffffffffffffffffffffffffffffffffffffffffffffffffffffffffffe0908116603f01168101908382118183101715610c5e57610c5e610b91565b81604052828152886020848701011115610c7757600080fd5b8260208601602083013760006020848301015280955050505050509250929050565b803573ffffffffffffffffffffffffffffffffffffffff81168114610cbd57600080fd5b919050565b60008060408385031215610cd557600080fd5b610cde83610c99565b915060208301358015158114610cf357600080fd5b809150509250929050565b600060208284031215610d1057600080fd5b61022b82610c99565b60008060008060608587031215610d2f57600080fd5b610d3885610c99565b935060208501359250604085013567ffffffffffffffff811115610d5b57600080fd5b610d6787828801610b03565b95989497509550505050565b821515815260006020604081840152835180604085015260005b81811015610da957858101830151858201606001528201610d8d565b81811115610dbb576000606083870101525b50601f017fffffffffffffffffffffffffffffffffffffffffffffffffffffffffffffffe01692909201606001949350505050565b8183823760009101908152919050565b7f4e487b7100000000000000000000000000000000000000000000000000000000600052602160045260246000fdfea2646970667358221220b5a4c59d05cd4fd9cbe41401331cb36c635058ff057fd32432a5458fea79f78f64736f6c634300080b00336101406040523480156200001257600080fd5b506040516200281f3803806200281f8339810160408190526200003591620002ed565b8180604051806040016040528060018152602001603160f81b815250848481600390805190602001906200006b9291906200017a565b508051620000819060049060208401906200017a565b5050825160209384012082519284019290922060e08390526101008190524660a0818152604080517f8b73c3c69bb8fe3d512ecc4cf759cc79239f7b179b0ffacaa9a75d522b39400f818901819052818301979097526060810194909452608080850193909352308483018190528151808603909301835260c09485019091528151919096012090529290925261012052506200012090503362000128565b505062000394565b600a80546001600160a01b038381166001600160a01b0319831681179093556040519116919082907f8be0079c531659141344cd1fd0a4f28419497f9722a3daafe3b4186f6b6457e090600090a35050565b828054620001889062000357565b90600052602060002090601f016020900481019282620001ac5760008555620001f7565b82601f10620001c757805160ff1916838001178555620001f7565b82800160010185558215620001f7579182015b82811115620001f7578251825591602001919060010190620001da565b506200020592915062000209565b5090565b5b808211156200020557600081556001016200020a565b634e487b7160e01b600052604160045260246000fd5b600082601f8301126200024857600080fd5b81516001600160401b038082111562000265576200026562000220565b604051601f8301601f19908116603f0116810190828211818310171562000290576200029062000220565b81604052838152602092508683858801011115620002ad57600080fd5b600091505b83821015620002d15785820183015181830184015290820190620002b2565b83821115620002e35760008385830101525b9695505050505050565b600080604083850312156200030157600080fd5b82516001600160401b03808211156200031957600080fd5b620003278683870162000236565b935060208501519150808211156200033e57600080fd5b506200034d8582860162000236565b9150509250929050565b600181811c908216806200036c57607f821691505b602082108114156200038e57634e487b7160e01b600052602260045260246000fd5b50919050565b60805160a05160c05160e051610100516101205161243b620003e4600039600061122a0152600061127901526000611254015260006111ad015260006111d701526000611201015261243b6000f3fe608060405234801561001057600080fd5b50600436106101b95760003560e01c806370a08231116100f9578063a457c2d711610097578063d505accf11610071578063d505accf146103c4578063dd62ed3e146103d7578063f1127ed814610410578063f2fde38b1461046257600080fd5b8063a457c2d71461038b578063a9059cbb1461039e578063c3cda520146103b157600080fd5b80638da5cb5b116100d35780638da5cb5b1461034c5780638e539e8c1461035d57806395d89b41146103705780639ab24eb01461037857600080fd5b806370a0823114610308578063715018a6146103315780637ecebe001461033957600080fd5b80633950935111610166578063587cde1e11610140578063587cde1e146102765780635c19a95c146102ba57806363fb8cf9146102cd5780636fcfff45146102e057600080fd5b8063395093511461023b5780633a46b1a81461024e578063575dbebe1461026157600080fd5b806323b872dd1161019757806323b872dd14610211578063313ce567146102245780633644e5151461023357600080fd5b806306fdde03146101be578063095ea7b3146101dc57806318160ddd146101ff575b600080fd5b6101c6610475565b6040516101d39190612051565b60405180910390f35b6101ef6101ea3660046120e0565b610507565b60405190151581526020016101d3565b6002545b6040519081526020016101d3565b6101ef61021f36600461210a565b61051f565b604051601281526020016101d3565b610203610543565b6101ef6102493660046120e0565b610552565b61020361025c3660046120e0565b610591565b61027461026f3660046120e0565b610610565b005b6102a2610284366004612146565b6001600160a01b039081166000908152600760205260409020541690565b6040516001600160a01b0390911681526020016101d3565b6102746102c8366004612146565b610678565b6102746102db3660046120e0565b610685565b6102f36102ee366004612146565b6106e9565b60405163ffffffff90911681526020016101d3565b610203610316366004612146565b6001600160a01b031660009081526020819052604090205490565b610274610711565b610203610347366004612146565b610777565b600a546001600160a01b03166102a2565b61020361036b366004612161565b610795565b6101c66107f1565b610203610386366004612146565b610800565b6101ef6103993660046120e0565b6108b1565b6101ef6103ac3660046120e0565b61095b565b6102746103bf36600461218b565b610969565b6102746103d23660046121e3565b610a9f565b6102036103e536600461224d565b6001600160a01b03918216600090815260016020908152604080832093909416825291909152205490565b61042361041e366004612280565b610c03565b60408051825163ffffffff1681526020928301517bffffffffffffffffffffffffffffffffffffffffffffffffffffffff1692810192909252016101d3565b610274610470366004612146565b610c9c565b606060038054610484906122c0565b80601f01602080910402602001604051908101604052809291908181526020018280546104b0906122c0565b80156104fd5780601f106104d2576101008083540402835291602001916104fd565b820191906000526020600020905b8154815290600101906020018083116104e057829003601f168201915b5050505050905090565b600033610515818585610d7b565b5060019392505050565b60003361052d858285610ed3565b610538858585610f83565b506001949350505050565b600061054d6111a0565b905090565b3360008181526001602090815260408083206001600160a01b0387168452909152812054909190610515908290869061058c90879061233d565b610d7b565b60004382106105e75760405162461bcd60e51b815260206004820152601f60248201527f4552433230566f7465733a20626c6f636b206e6f7420796574206d696e65640060448201526064015b60405180910390fd5b6001600160a01b038316600090815260086020526040902061060990836112c7565b9392505050565b600a546001600160a01b0316331461066a5760405162461bcd60e51b815260206004820181905260248201527f4f776e61626c653a2063616c6c6572206973206e6f7420746865206f776e657260448201526064016105de565b61067482826113ae565b5050565b61068233826113b8565b50565b600a546001600160a01b031633146106df5760405162461bcd60e51b815260206004820181905260248201527f4f776e61626c653a2063616c6c6572206973206e6f7420746865206f776e657260448201526064016105de565b6106748282611449565b6001600160a01b03811660009081526008602052604081205461070b90611453565b92915050565b600a546001600160a01b0316331461076b5760405162461bcd60e51b815260206004820181905260248201527f4f776e61626c653a2063616c6c6572206973206e6f7420746865206f776e657260448201526064016105de565b61077560006114d3565b565b6001600160a01b03811660009081526005602052604081205461070b565b60004382106107e65760405162461bcd60e51b815260206004820152601f60248201527f4552433230566f7465733a20626c6f636b206e6f7420796574206d696e65640060448201526064016105de565b61070b6009836112c7565b606060048054610484906122c0565b6001600160a01b0381166000908152600860205260408120548015610889576001600160a01b0383166000908152600860205260409020610842600183612355565b815481106108525761085261236c565b60009182526020909120015464010000000090047bffffffffffffffffffffffffffffffffffffffffffffffffffffffff1661088c565b60005b7bffffffffffffffffffffffffffffffffffffffffffffffffffffffff169392505050565b3360008181526001602090815260408083206001600160a01b03871684529091528120549091908381101561094e5760405162461bcd60e51b815260206004820152602560248201527f45524332303a2064656372656173656420616c6c6f77616e63652062656c6f7760448201527f207a65726f00000000000000000000000000000000000000000000000000000060648201526084016105de565b6105388286868403610d7b565b600033610515818585610f83565b834211156109b95760405162461bcd60e51b815260206004820152601d60248201527f4552433230566f7465733a207369676e6174757265206578706972656400000060448201526064016105de565b604080517fe48329057bfd03d55e49b547132e39cffd9c1820ad7b9d4c5307691425d15adf60208201526001600160a01b038816918101919091526060810186905260808101859052600090610a3390610a2b9060a0016040516020818303038152906040528051906020012061153d565b8585856115a6565b9050610a3e816115ce565b8614610a8c5760405162461bcd60e51b815260206004820152601960248201527f4552433230566f7465733a20696e76616c6964206e6f6e63650000000000000060448201526064016105de565b610a9681886113b8565b50505050505050565b83421115610aef5760405162461bcd60e51b815260206004820152601d60248201527f45524332305065726d69743a206578706972656420646561646c696e6500000060448201526064016105de565b60007f6e71edae12b1b97f4d1f60370fef10105fa2faae0126114a169c64845d6126c9888888610b1e8c6115ce565b6040805160208101969096526001600160a01b0394851690860152929091166060840152608083015260a082015260c0810186905260e0016040516020818303038152906040528051906020012090506000610b798261153d565b90506000610b89828787876115a6565b9050896001600160a01b0316816001600160a01b031614610bec5760405162461bcd60e51b815260206004820152601e60248201527f45524332305065726d69743a20696e76616c6964207369676e6174757265000060448201526064016105de565b610bf78a8a8a610d7b565b50505050505050505050565b60408051808201909152600080825260208201526001600160a01b0383166000908152600860205260409020805463ffffffff8416908110610c4757610c4761236c565b60009182526020918290206040805180820190915291015463ffffffff8116825264010000000090047bffffffffffffffffffffffffffffffffffffffffffffffffffffffff16918101919091529392505050565b600a546001600160a01b03163314610cf65760405162461bcd60e51b815260206004820181905260248201527f4f776e61626c653a2063616c6c6572206973206e6f7420746865206f776e657260448201526064016105de565b6001600160a01b038116610d725760405162461bcd60e51b815260206004820152602660248201527f4f776e61626c653a206e6577206f776e657220697320746865207a65726f206160448201527f646472657373000000000000000000000000000000000000000000000000000060648201526084016105de565b610682816114d3565b6001600160a01b038316610df65760405162461bcd60e51b8152602060048201526024808201527f45524332303a20617070726f76652066726f6d20746865207a65726f2061646460448201527f726573730000000000000000000000000000000000000000000000000000000060648201526084016105de565b6001600160a01b038216610e725760405162461bcd60e51b815260206004820152602260248201527f45524332303a20617070726f766520746f20746865207a65726f20616464726560448201527f737300000000000000000000000000000000000000000000000000000000000060648201526084016105de565b6001600160a01b0383811660008181526001602090815260408083209487168084529482529182902085905590518481527f8c5be1e5ebec7d5bd14f71427d1e84f3dd0314c0f7b2291e5b200ac8c7c3b925910160405180910390a3505050565b6001600160a01b038381166000908152600160209081526040808320938616835292905220547fffffffffffffffffffffffffffffffffffffffffffffffffffffffffffffffff8114610f7d5781811015610f705760405162461bcd60e51b815260206004820152601d60248201527f45524332303a20696e73756666696369656e7420616c6c6f77616e636500000060448201526064016105de565b610f7d8484848403610d7b565b50505050565b6001600160a01b038316610fff5760405162461bcd60e51b815260206004820152602560248201527f45524332303a207472616e736665722066726f6d20746865207a65726f20616460448201527f647265737300000000000000000000000000000000000000000000000000000060648201526084016105de565b6001600160a01b03821661107b5760405162461bcd60e51b815260206004820152602360248201527f45524332303a207472616e7366657220746f20746865207a65726f206164647260448201527f657373000000000000000000000000000000000000000000000000000000000060648201526084016105de565b6001600160a01b0383166000908152602081905260409020548181101561110a5760405162461bcd60e51b815260206004820152602660248201527f45524332303a207472616e7366657220616d6f756e742065786365656473206260448201527f616c616e6365000000000000000000000000000000000000000000000000000060648201526084016105de565b6001600160a01b0380851660009081526020819052604080822085850390559185168152908120805484929061114190849061233d565b92505081905550826001600160a01b0316846001600160a01b03167fddf252ad1be2c89b69c2b068fc378daa952ba7f163c4a11628f55a4df523b3ef8460405161118d91815260200190565b60405180910390a3610f7d8484846115fb565b6000306001600160a01b037f0000000000000000000000000000000000000000000000000000000000000000161480156111f957507f000000000000000000000000000000000000000000000000000000000000000046145b1561122357507f000000000000000000000000000000000000000000000000000000000000000090565b50604080517f00000000000000000000000000000000000000000000000000000000000000006020808301919091527f0000000000000000000000000000000000000000000000000000000000000000828401527f000000000000000000000000000000000000000000000000000000000000000060608301524660808301523060a0808401919091528351808403909101815260c0909201909252805191012090565b8154600090815b8181101561132b5760006112e28284611606565b9050848682815481106112f7576112f761236c565b60009182526020909120015463ffffffff16111561131757809250611325565b61132281600161233d565b91505b506112ce565b8115611384578461133d600184612355565b8154811061134d5761134d61236c565b60009182526020909120015464010000000090047bffffffffffffffffffffffffffffffffffffffffffffffffffffffff16611387565b60005b7bffffffffffffffffffffffffffffffffffffffffffffffffffffffff1695945050505050565b6106748282611621565b6001600160a01b038281166000818152600760208181526040808420805485845282862054949093528787167fffffffffffffffffffffffff00000000000000000000000000000000000000008416811790915590519190951694919391928592917f3134e8a2e6d97e929a7e54011ea5485d7d196dd5f0ba4d4ef95803e8e3fc257f9190a4610f7d8284836116cd565b610674828261180a565b600063ffffffff8211156114cf5760405162461bcd60e51b815260206004820152602660248201527f53616665436173743a2076616c756520646f65736e27742066697420696e203360448201527f322062697473000000000000000000000000000000000000000000000000000060648201526084016105de565b5090565b600a80546001600160a01b038381167fffffffffffffffffffffffff0000000000000000000000000000000000000000831681179093556040519116919082907f8be0079c531659141344cd1fd0a4f28419497f9722a3daafe3b4186f6b6457e090600090a35050565b600061070b61154a6111a0565b836040517f19010000000000000000000000000000000000000000000000000000000000006020820152602281018390526042810182905260009060620160405160208183030381529060405280519060200120905092915050565b60008060006115b787878787611822565b915091506115c48161192d565b5095945050505050565b6001600160a01b03811660009081526005602052604090208054600181018255905b50919050565b505050565b6115f6838383611b1e565b6000611615600284841861239b565b6106099084841661233d565b61162b8282611b50565b6002547bffffffffffffffffffffffffffffffffffffffffffffffffffffffff10156116bf5760405162461bcd60e51b815260206004820152603060248201527f4552433230566f7465733a20746f74616c20737570706c79207269736b73206f60448201527f766572666c6f77696e6720766f7465730000000000000000000000000000000060648201526084016105de565b610f7d6009611c3783611c43565b816001600160a01b0316836001600160a01b0316141580156116ef5750600081115b156115f6576001600160a01b0383161561177d576001600160a01b0383166000908152600860205260408120819061172a90611e2585611c43565b91509150846001600160a01b03167fdec2bacdd2f05b59de34da9b523dff8be42e5e38e818c82fdb0bae774387a7248383604051611772929190918252602082015260400190565b60405180910390a250505b6001600160a01b038216156115f6576001600160a01b038216600090815260086020526040812081906117b390611c3785611c43565b91509150836001600160a01b03167fdec2bacdd2f05b59de34da9b523dff8be42e5e38e818c82fdb0bae774387a72483836040516117fb929190918252602082015260400190565b60405180910390a25050505050565b6118148282611e31565b610f7d6009611e2583611c43565b6000807f7fffffffffffffffffffffffffffffff5d576e7357a4501ddfe92f46681b20a08311156118595750600090506003611924565b8460ff16601b1415801561187157508460ff16601c14155b156118825750600090506004611924565b6040805160008082526020820180845289905260ff881692820192909252606081018690526080810185905260019060a0016020604051602081039080840390855afa1580156118d6573d6000803e3d6000fd5b50506040517fffffffffffffffffffffffffffffffffffffffffffffffffffffffffffffffe001519150506001600160a01b03811661191d57600060019250925050611924565b9150600090505b94509492505050565b6000816004811115611941576119416123d6565b141561194a5750565b600181600481111561195e5761195e6123d6565b14156119ac5760405162461bcd60e51b815260206004820152601860248201527f45434453413a20696e76616c6964207369676e6174757265000000000000000060448201526064016105de565b60028160048111156119c0576119c06123d6565b1415611a0e5760405162461bcd60e51b815260206004820152601f60248201527f45434453413a20696e76616c6964207369676e6174757265206c656e6774680060448201526064016105de565b6003816004811115611a2257611a226123d6565b1415611a965760405162461bcd60e51b815260206004820152602260248201527f45434453413a20696e76616c6964207369676e6174757265202773272076616c60448201527f756500000000000000000000000000000000000000000000000000000000000060648201526084016105de565b6004816004811115611aaa57611aaa6123d6565b14156106825760405162461bcd60e51b815260206004820152602260248201527f45434453413a20696e76616c6964207369676e6174757265202776272076616c60448201527f756500000000000000000000000000000000000000000000000000000000000060648201526084016105de565b6001600160a01b038381166000908152600760205260408082205485841683529120546115f6929182169116836116cd565b6001600160a01b038216611ba65760405162461bcd60e51b815260206004820152601f60248201527f45524332303a206d696e7420746f20746865207a65726f20616464726573730060448201526064016105de565b8060026000828254611bb8919061233d565b90915550506001600160a01b03821660009081526020819052604081208054839290611be590849061233d565b90915550506040518181526001600160a01b038316906000907fddf252ad1be2c89b69c2b068fc378daa952ba7f163c4a11628f55a4df523b3ef9060200160405180910390a3610674600083836115fb565b6000610609828461233d565b825460009081908015611ca35785611c5c600183612355565b81548110611c6c57611c6c61236c565b60009182526020909120015464010000000090047bffffffffffffffffffffffffffffffffffffffffffffffffffffffff16611ca6565b60005b7bffffffffffffffffffffffffffffffffffffffffffffffffffffffff169250611cd483858763ffffffff16565b9150600081118015611d1257504386611cee600184612355565b81548110611cfe57611cfe61236c565b60009182526020909120015463ffffffff16145b15611d9c57611d2082611fbd565b86611d2c600184612355565b81548110611d3c57611d3c61236c565b9060005260206000200160000160046101000a8154817bffffffffffffffffffffffffffffffffffffffffffffffffffffffff02191690837bffffffffffffffffffffffffffffffffffffffffffffffffffffffff160217905550611e1c565b856040518060400160405280611db143611453565b63ffffffff168152602001611dc585611fbd565b7bffffffffffffffffffffffffffffffffffffffffffffffffffffffff90811690915282546001810184556000938452602093849020835194909301519091166401000000000263ffffffff909316929092179101555b50935093915050565b60006106098284612355565b6001600160a01b038216611ead5760405162461bcd60e51b815260206004820152602160248201527f45524332303a206275726e2066726f6d20746865207a65726f2061646472657360448201527f730000000000000000000000000000000000000000000000000000000000000060648201526084016105de565b6001600160a01b03821660009081526020819052604090205481811015611f3c5760405162461bcd60e51b815260206004820152602260248201527f45524332303a206275726e20616d6f756e7420657863656564732062616c616e60448201527f636500000000000000000000000000000000000000000000000000000000000060648201526084016105de565b6001600160a01b0383166000908152602081905260408120838303905560028054849290611f6b908490612355565b90915550506040518281526000906001600160a01b038516907fddf252ad1be2c89b69c2b068fc378daa952ba7f163c4a11628f55a4df523b3ef9060200160405180910390a36115f6836000846115fb565b60007bffffffffffffffffffffffffffffffffffffffffffffffffffffffff8211156114cf5760405162461bcd60e51b815260206004820152602760248201527f53616665436173743a2076616c756520646f65736e27742066697420696e203260448201527f323420626974730000000000000000000000000000000000000000000000000060648201526084016105de565b600060208083528351808285015260005b8181101561207e57858101830151858201604001528201612062565b81811115612090576000604083870101525b50601f017fffffffffffffffffffffffffffffffffffffffffffffffffffffffffffffffe016929092016040019392505050565b80356001600160a01b03811681146120db57600080fd5b919050565b600080604083850312156120f357600080fd5b6120fc836120c4565b946020939093013593505050565b60008060006060848603121561211f57600080fd5b612128846120c4565b9250612136602085016120c4565b9150604084013590509250925092565b60006020828403121561215857600080fd5b610609826120c4565b60006020828403121561217357600080fd5b5035919050565b803560ff811681146120db57600080fd5b60008060008060008060c087890312156121a457600080fd5b6121ad876120c4565b955060208701359450604087013593506121c96060880161217a565b92506080870135915060a087013590509295509295509295565b600080600080600080600060e0888a0312156121fe57600080fd5b612207886120c4565b9650612215602089016120c4565b955060408801359450606088013593506122316080890161217a565b925060a0880135915060c0880135905092959891949750929550565b6000806040838503121561226057600080fd5b612269836120c4565b9150612277602084016120c4565b90509250929050565b6000806040838503121561229357600080fd5b61229c836120c4565b9150602083013563ffffffff811681146122b557600080fd5b809150509250929050565b600181811c908216806122d457607f821691505b602082108114156115f0577f4e487b7100000000000000000000000000000000000000000000000000000000600052602260045260246000fd5b7f4e487b7100000000000000000000000000000000000000000000000000000000600052601160045260246000fd5b600082198211156123505761235061230e565b500190565b6000828210156123675761236761230e565b500390565b7f4e487b7100000000000000000000000000000000000000000000000000000000600052603260045260246000fd5b6000826123d1577f4e487b7100000000000000000000000000000000000000000000000000000000600052601260045260246000fd5b500490565b7f4e487b7100000000000000000000000000000000000000000000000000000000600052602160045260246000fdfea2646970667358221220f2f0ab8c76c8c83cc9bf581be5d859c0f138d77a94570f82ef143f2f5782362a64736f6c634300080b0033a264697066735822122072dcc06f4e5488f9bceb966e0671a36df2c437fc6130991ef4ffef2e7661aa9a64736f6c634300080b0033",
  "devdoc": {
    "kind": "dev",
    "methods": {
      "splitBranch(address,uint256,string,string,string,string)": {
        "details": "create new branch for splint up subdao",
        "params": {
          "amount": "initial amount of parent token",
          "imageUrl": "link to url of subdao's image",
          "name": "name of subdao",
          "parentToken": "address of ERC20 token",
          "tokenName": "name of subdao token",
          "tokenSymbol": "symbol of subdao token"
        }
      }
    },
    "version": 1
  },
  "userdoc": {
    "kind": "user",
    "methods": {},
    "version": 1
  },
  "storageLayout": {
    "storage": [
      {
        "astId": 4337,
        "contract": "contracts/SocotraFactory.sol:SocotraFactory",
        "label": "branchIds",
        "offset": 0,
        "slot": "0",
        "type": "t_uint256"
      },
      {
        "astId": 4340,
        "contract": "contracts/SocotraFactory.sol:SocotraFactory",
        "label": "MIN_ISSUE_AMOUNT",
        "offset": 0,
        "slot": "1",
        "type": "t_uint256"
      },
      {
        "astId": 4345,
        "contract": "contracts/SocotraFactory.sol:SocotraFactory",
        "label": "branches",
        "offset": 0,
        "slot": "2",
        "type": "t_mapping(t_uint256,t_struct(BranchInfo)4335_storage)"
      }
    ],
    "types": {
      "t_address": {
        "encoding": "inplace",
        "label": "address",
        "numberOfBytes": "20"
      },
      "t_mapping(t_uint256,t_struct(BranchInfo)4335_storage)": {
        "encoding": "mapping",
        "key": "t_uint256",
        "label": "mapping(uint256 => struct SocotraFactory.BranchInfo)",
        "numberOfBytes": "32",
        "value": "t_struct(BranchInfo)4335_storage"
      },
      "t_struct(BranchInfo)4335_storage": {
        "encoding": "inplace",
        "label": "struct SocotraFactory.BranchInfo",
        "members": [
          {
            "astId": 4330,
            "contract": "contracts/SocotraFactory.sol:SocotraFactory",
            "label": "branchAddr",
            "offset": 0,
            "slot": "0",
            "type": "t_address"
          },
          {
            "astId": 4332,
            "contract": "contracts/SocotraFactory.sol:SocotraFactory",
            "label": "parentToken",
            "offset": 0,
            "slot": "1",
            "type": "t_address"
          },
          {
            "astId": 4334,
            "contract": "contracts/SocotraFactory.sol:SocotraFactory",
            "label": "issuer",
            "offset": 0,
            "slot": "2",
            "type": "t_address"
          }
        ],
        "numberOfBytes": "96"
      },
      "t_uint256": {
        "encoding": "inplace",
        "label": "uint256",
        "numberOfBytes": "32"
      }
    }
  }
}