{
  "address": "0xBEF13CBAF3f914073A77EBC57B7e9c3F9DcE81B4",
  "abi": [
    {
      "inputs": [],
      "stateMutability": "nonpayable",
      "type": "constructor"
    },
    {
      "anonymous": false,
      "inputs": [
        {
          "indexed": false,
          "internalType": "address",
          "name": "owner",
          "type": "address"
        },
        {
          "indexed": false,
          "internalType": "address",
          "name": "issuer",
          "type": "address"
        },
        {
          "indexed": false,
          "internalType": "address",
          "name": "voter",
          "type": "address"
        }
      ],
      "name": "CreateVoter",
      "type": "event"
    },
    {
      "anonymous": false,
      "inputs": [
        {
          "indexed": false,
          "internalType": "address",
          "name": "branchAddr",
          "type": "address"
        },
        {
          "indexed": false,
          "internalType": "address",
          "name": "parentToken",
          "type": "address"
        },
        {
          "indexed": false,
          "internalType": "uint256",
          "name": "amount",
          "type": "uint256"
        },
        {
          "indexed": false,
          "internalType": "address",
          "name": "issuer",
          "type": "address"
        },
        {
          "indexed": false,
          "internalType": "uint256",
          "name": "branchId",
          "type": "uint256"
        }
      ],
      "name": "SplitBranch",
      "type": "event"
    },
    {
      "inputs": [
        {
          "internalType": "address",
          "name": "issuer",
          "type": "address"
        }
      ],
      "name": "createVoteProxy",
      "outputs": [
        {
          "internalType": "address",
          "name": "",
          "type": "address"
        }
      ],
      "stateMutability": "nonpayable",
      "type": "function"
    },
    {
      "inputs": [],
      "name": "socotraBranchManagerImplementation",
      "outputs": [
        {
          "internalType": "address",
          "name": "",
          "type": "address"
        }
      ],
      "stateMutability": "view",
      "type": "function"
    },
    {
      "inputs": [
        {
          "internalType": "address",
          "name": "parentToken",
          "type": "address"
        },
        {
          "internalType": "uint256",
          "name": "amount",
          "type": "uint256"
        },
        {
          "internalType": "string",
          "name": "name",
          "type": "string"
        },
        {
          "internalType": "string",
          "name": "imageUrl",
          "type": "string"
        },
        {
          "internalType": "string",
          "name": "tokenName",
          "type": "string"
        },
        {
          "internalType": "string",
          "name": "tokenSymbol",
          "type": "string"
        }
      ],
      "name": "splitBranch",
      "outputs": [
        {
          "internalType": "address",
          "name": "",
          "type": "address"
        }
      ],
      "stateMutability": "nonpayable",
      "type": "function"
    },
    {
      "inputs": [],
      "name": "voteProxyImplementation",
      "outputs": [
        {
          "internalType": "address",
          "name": "",
          "type": "address"
        }
      ],
      "stateMutability": "view",
      "type": "function"
    }
  ],
  "transactionHash": "0x11b9f8a9cf59a76a9a3af065f4f20a018fe24b210c7fcf9aff38123dade26aa1",
  "args": [],
  "numDeployments": 1,
  "solcInputHash": "066fc764a5e09c3566a2547b6f8189c7",
  "bytecode": "0x60c0604052600060015534801561001557600080fd5b5060405161002290610085565b604051809103906000f08015801561003e573d6000803e3d6000fd5b506001600160a01b031660a05260405161005790610092565b604051809103906000f080158015610073573d6000803e3d6000fd5b506001600160a01b031660805261009f565b61119280610a2483390190565b61548b80611bb683390190565b60805160a0516109546100d060003960008181609201526103d401526000818160b9015261016701526109546000f3fe608060405234801561001057600080fd5b506004361061004c5760003560e01c806302235d1514610051578063681b16961461008d5780639b7a2afe146100b4578063b251b294146100db575b600080fd5b61006461005f3660046106c0565b6100ee565b60405173ffffffffffffffffffffffffffffffffffffffff909116815260200160405180910390f35b6100647f000000000000000000000000000000000000000000000000000000000000000081565b6100647f000000000000000000000000000000000000000000000000000000000000000081565b6100646100e9366004610786565b6103cc565b60006001548611610160576040517f08c379a000000000000000000000000000000000000000000000000000000000815260206004820152601960248201527f4d5553545f475245415445525f5448414e5f4d494e494d554d0000000000000060448201526064015b60405180910390fd5b600061018b7f00000000000000000000000000000000000000000000000000000000000000006104e0565b6040517f9c405e5f00000000000000000000000000000000000000000000000000000000815290915073ffffffffffffffffffffffffffffffffffffffff821690639c405e5f906101ec9030908c9033908c908c908c908c90600401610813565b600060405180830381600087803b15801561020657600080fd5b505af115801561021a573d6000803e3d6000fd5b50506040805160608101825273ffffffffffffffffffffffffffffffffffffffff8581168083528d8216602080850182815233868801818152600080548152600294859052899020975188549088167fffffffffffffffffffffffff00000000000000000000000000000000000000009182161789559251600189018054918916918516919091179055519690920180549690951695169490941790925592517f23b872dd00000000000000000000000000000000000000000000000000000000815260048101929092526024820192909252604481018b90529092506323b872dd91506064016020604051808303816000875af1158015610320573d6000803e3d6000fd5b505050506040513d601f19601f82011682018060405250810190610344919061089c565b506000546040805173ffffffffffffffffffffffffffffffffffffffff84811682528b1660208201528082018a90523360608201526080810192909252517fe7ba7c736ee01b2bba2f5926d861c1813ceb0babfe0cd485768222ceb296e1d79181900360a00190a16000805490806103bb836108be565b909155509098975050505050505050565b6000806103f87f00000000000000000000000000000000000000000000000000000000000000006104e0565b6040517ff09a401600000000000000000000000000000000000000000000000000000000815233600482015273ffffffffffffffffffffffffffffffffffffffff85811660248301529192509082169063f09a401690604401600060405180830381600087803b15801561046b57600080fd5b505af115801561047f573d6000803e3d6000fd5b50506040805133815273ffffffffffffffffffffffffffffffffffffffff878116602083015285168183015290517fccc4be75b69ada82154d60758cc34d9eddfb3e32ac796ee2c2b450e1f2cdd98e9350908190036060019150a192915050565b60006040517f3d602d80600a3d3981f3363d3d373d3d3d363d7300000000000000000000000081528260601b60148201527f5af43d82803e903d91602b57fd5bf3000000000000000000000000000000000060288201526037816000f091505073ffffffffffffffffffffffffffffffffffffffff81166105bd576040517f08c379a000000000000000000000000000000000000000000000000000000000815260206004820152601660248201527f455243313136373a20637265617465206661696c6564000000000000000000006044820152606401610157565b919050565b803573ffffffffffffffffffffffffffffffffffffffff811681146105bd57600080fd5b7f4e487b7100000000000000000000000000000000000000000000000000000000600052604160045260246000fd5b600082601f83011261062657600080fd5b813567ffffffffffffffff80821115610641576106416105e6565b604051601f83017fffffffffffffffffffffffffffffffffffffffffffffffffffffffffffffffe0908116603f01168101908282118183101715610687576106876105e6565b816040528381528660208588010111156106a057600080fd5b836020870160208301376000602085830101528094505050505092915050565b60008060008060008060c087890312156106d957600080fd5b6106e2876105c2565b955060208701359450604087013567ffffffffffffffff8082111561070657600080fd5b6107128a838b01610615565b9550606089013591508082111561072857600080fd5b6107348a838b01610615565b9450608089013591508082111561074a57600080fd5b6107568a838b01610615565b935060a089013591508082111561076c57600080fd5b5061077989828a01610615565b9150509295509295509295565b60006020828403121561079857600080fd5b6107a1826105c2565b9392505050565b6000815180845260005b818110156107ce576020818501810151868301820152016107b2565b818111156107e0576000602083870101525b50601f017fffffffffffffffffffffffffffffffffffffffffffffffffffffffffffffffe0169290920160200192915050565b600073ffffffffffffffffffffffffffffffffffffffff808a168352808916602084015280881660408401525060e0606083015261085460e08301876107a8565b828103608084015261086681876107a8565b905082810360a084015261087a81866107a8565b905082810360c084015261088e81856107a8565b9a9950505050505050505050565b6000602082840312156108ae57600080fd5b815180151581146107a157600080fd5b60007fffffffffffffffffffffffffffffffffffffffffffffffffffffffffffffffff821415610917577f4e487b7100000000000000000000000000000000000000000000000000000000600052601160045260246000fd5b506001019056fea26469706673582212204f9b570bed02995ac0dd74da84369cd826481205974878f0138e493b5d36083664736f6c634300080b0033608060405234801561001057600080fd5b5061001a3361001f565b61006f565b600080546001600160a01b038381166001600160a01b0319831681178455604051919092169283917f8be0079c531659141344cd1fd0a4f28419497f9722a3daafe3b4186f6b6457e09190a35050565b6111148061007e6000396000f3fe608060405234801561001057600080fd5b50600436106100be5760003560e01c8063ac0679a611610076578063b61d27f61161005b578063b61d27f6146101aa578063f09a4016146101cb578063f2fde38b146101de57600080fd5b8063ac0679a614610174578063af0dbe541461018757600080fd5b8063715018a6116100a7578063715018a61461012f5780638da5cb5b14610139578063a222b1051461016157600080fd5b80631626ba7e146100c35780635d3a89991461010c575b600080fd5b6100d66100d1366004610d62565b6101f1565b6040517fffffffff0000000000000000000000000000000000000000000000000000000090911681526020015b60405180910390f35b61011f61011a366004610ddd565b61028e565b6040519015158152602001610103565b6101376102cb565b005b60005460405173ffffffffffffffffffffffffffffffffffffffff9091168152602001610103565b61013761016f366004610edf565b61035d565b610137610182366004610f25565b610438565b61011f610195366004610f61565b60016020526000908152604090205460ff1681565b6101bd6101b8366004610f7c565b610547565b604051610103929190610fd6565b6101376101d9366004611053565b61064b565b6101376101ec366004610f61565b610731565b60006102338484848080601f01602080910402602001604051908101604052809392919081815260200183838082843760009201919091525061028e92505050565b15156001141561026457507f1626ba7e00000000000000000000000000000000000000000000000000000000610287565b507fffffffff000000000000000000000000000000000000000000000000000000005b9392505050565b60008061029b8484610861565b73ffffffffffffffffffffffffffffffffffffffff1660009081526001602052604090205460ff16949350505050565b60005473ffffffffffffffffffffffffffffffffffffffff163314610351576040517f08c379a000000000000000000000000000000000000000000000000000000000815260206004820181905260248201527f4f776e61626c653a2063616c6c6572206973206e6f7420746865206f776e657260448201526064015b60405180910390fd5b61035b6000610885565b565b33600090815260016020819052604090912080547fffffffffffffffffffffffffffffffffffffffffffffffffffffffffffffff001690911790556040517f567813880000000000000000000000000000000000000000000000000000000081526004810183905260ff8216602482015273ffffffffffffffffffffffffffffffffffffffff8416906356781388906044016020604051808303816000875af115801561040e573d6000803e3d6000fd5b505050506040513d601f19601f820116820180604052508101906104329190611086565b50505050565b60005473ffffffffffffffffffffffffffffffffffffffff1633146104b9576040517f08c379a000000000000000000000000000000000000000000000000000000000815260206004820181905260248201527f4f776e61626c653a2063616c6c6572206973206e6f7420746865206f776e65726044820152606401610348565b73ffffffffffffffffffffffffffffffffffffffff821660008181526001602090815260409182902080547fffffffffffffffffffffffffffffffffffffffffffffffffffffffffffffff00168515159081179091558251938452908301527fb43d5232746338e9c1144f9527dfc24742e0c8ff638df3bb5d21cefbb83480f2910160405180910390a15050565b6000805460609073ffffffffffffffffffffffffffffffffffffffff1633146105cc576040517f08c379a000000000000000000000000000000000000000000000000000000000815260206004820181905260248201527f4f776e61626c653a2063616c6c6572206973206e6f7420746865206f776e65726044820152606401610348565b6000808773ffffffffffffffffffffffffffffffffffffffff168787876040516105f792919061109f565b60006040518083038185875af1925050503d8060008114610634576040519150601f19603f3d011682016040523d82523d6000602084013e610639565b606091505b50909450925050505b94509492505050565b6000805474010000000000000000000000000000000000000000900460ff16600181111561067b5761067b6110af565b1461068557600080fd5b61068e82610885565b33600090815260016020819052604080832080547fffffffffffffffffffffffffffffffffffffffffffffffffffffffffffffff00908116841790915573ffffffffffffffffffffffffffffffffffffffff949094168352822080549093161790915580547fffffffffffffffffffffff00ffffffffffffffffffffffffffffffffffffffff167401000000000000000000000000000000000000000017905550565b60005473ffffffffffffffffffffffffffffffffffffffff1633146107b2576040517f08c379a000000000000000000000000000000000000000000000000000000000815260206004820181905260248201527f4f776e61626c653a2063616c6c6572206973206e6f7420746865206f776e65726044820152606401610348565b73ffffffffffffffffffffffffffffffffffffffff8116610855576040517f08c379a000000000000000000000000000000000000000000000000000000000815260206004820152602660248201527f4f776e61626c653a206e6577206f776e657220697320746865207a65726f206160448201527f64647265737300000000000000000000000000000000000000000000000000006064820152608401610348565b61085e81610885565b50565b600080600061087085856108fa565b9150915061087d8161096a565b509392505050565b6000805473ffffffffffffffffffffffffffffffffffffffff8381167fffffffffffffffffffffffff0000000000000000000000000000000000000000831681178455604051919092169283917f8be0079c531659141344cd1fd0a4f28419497f9722a3daafe3b4186f6b6457e09190a35050565b6000808251604114156109315760208301516040840151606085015160001a61092587828585610bc3565b94509450505050610963565b82516040141561095b5760208301516040840151610950868383610cd8565b935093505050610963565b506000905060025b9250929050565b600081600481111561097e5761097e6110af565b14156109875750565b600181600481111561099b5761099b6110af565b1415610a03576040517f08c379a000000000000000000000000000000000000000000000000000000000815260206004820152601860248201527f45434453413a20696e76616c6964207369676e617475726500000000000000006044820152606401610348565b6002816004811115610a1757610a176110af565b1415610a7f576040517f08c379a000000000000000000000000000000000000000000000000000000000815260206004820152601f60248201527f45434453413a20696e76616c6964207369676e6174757265206c656e677468006044820152606401610348565b6003816004811115610a9357610a936110af565b1415610b21576040517f08c379a000000000000000000000000000000000000000000000000000000000815260206004820152602260248201527f45434453413a20696e76616c6964207369676e6174757265202773272076616c60448201527f75650000000000000000000000000000000000000000000000000000000000006064820152608401610348565b6004816004811115610b3557610b356110af565b141561085e576040517f08c379a000000000000000000000000000000000000000000000000000000000815260206004820152602260248201527f45434453413a20696e76616c6964207369676e6174757265202776272076616c60448201527f75650000000000000000000000000000000000000000000000000000000000006064820152608401610348565b6000807f7fffffffffffffffffffffffffffffff5d576e7357a4501ddfe92f46681b20a0831115610bfa5750600090506003610642565b8460ff16601b14158015610c1257508460ff16601c14155b15610c235750600090506004610642565b6040805160008082526020820180845289905260ff881692820192909252606081018690526080810185905260019060a0016020604051602081039080840390855afa158015610c77573d6000803e3d6000fd5b50506040517fffffffffffffffffffffffffffffffffffffffffffffffffffffffffffffffe0015191505073ffffffffffffffffffffffffffffffffffffffff8116610ccb57600060019250925050610642565b9660009650945050505050565b6000807f7fffffffffffffffffffffffffffffffffffffffffffffffffffffffffffffff831660ff84901c601b01610d1287828885610bc3565b935093505050935093915050565b60008083601f840112610d3257600080fd5b50813567ffffffffffffffff811115610d4a57600080fd5b60208301915083602082850101111561096357600080fd5b600080600060408486031215610d7757600080fd5b83359250602084013567ffffffffffffffff811115610d9557600080fd5b610da186828701610d20565b9497909650939450505050565b7f4e487b7100000000000000000000000000000000000000000000000000000000600052604160045260246000fd5b60008060408385031215610df057600080fd5b82359150602083013567ffffffffffffffff80821115610e0f57600080fd5b818501915085601f830112610e2357600080fd5b813581811115610e3557610e35610dae565b604051601f82017fffffffffffffffffffffffffffffffffffffffffffffffffffffffffffffffe0908116603f01168101908382118183101715610e7b57610e7b610dae565b81604052828152886020848701011115610e9457600080fd5b8260208601602083013760006020848301015280955050505050509250929050565b803573ffffffffffffffffffffffffffffffffffffffff81168114610eda57600080fd5b919050565b600080600060608486031215610ef457600080fd5b610efd84610eb6565b925060208401359150604084013560ff81168114610f1a57600080fd5b809150509250925092565b60008060408385031215610f3857600080fd5b610f4183610eb6565b915060208301358015158114610f5657600080fd5b809150509250929050565b600060208284031215610f7357600080fd5b61028782610eb6565b60008060008060608587031215610f9257600080fd5b610f9b85610eb6565b935060208501359250604085013567ffffffffffffffff811115610fbe57600080fd5b610fca87828801610d20565b95989497509550505050565b821515815260006020604081840152835180604085015260005b8181101561100c57858101830151858201606001528201610ff0565b8181111561101e576000606083870101525b50601f017fffffffffffffffffffffffffffffffffffffffffffffffffffffffffffffffe01692909201606001949350505050565b6000806040838503121561106657600080fd5b61106f83610eb6565b915061107d60208401610eb6565b90509250929050565b60006020828403121561109857600080fd5b5051919050565b8183823760009101908152919050565b7f4e487b7100000000000000000000000000000000000000000000000000000000600052602160045260246000fdfea2646970667358221220e1f95d2cdd118ab98c4b44a08112b5d9923b8ed2a6d574213f3735ba83a485e364736f6c634300080b00336080604052600680546001600160a01b03191673469788fe6e9e9681c6ebf3bf78e7fd26fc01544617905534801561003657600080fd5b5061004033610045565b610095565b600080546001600160a01b038381166001600160a01b0319831681178455604051919092169283917f8be0079c531659141344cd1fd0a4f28419497f9722a3daafe3b4186f6b6457e09190a35050565b6153e680620000a56000396000f3fe60806040523480156200001157600080fd5b5060043610620001955760003560e01c80639c405e5f11620000e9578063c45a01551162000097578063d8aea930116200006e578063d8aea9301462000363578063f2fde38b146200037a578063f460590b146200039157600080fd5b8063c45a01551462000321578063c6ac39f01462000342578063c6c363d1146200034c57600080fd5b8063b183136b11620000cc578063b183136b14620002dc578063b21c793514620002f3578063b9ce7d3b146200030a57600080fd5b80639c405e5f14620002ae5780639f13e2c014620002c557600080fd5b8063739249351162000147578063858088f4116200012a578063858088f4146200024057806386728d2c14620002575780638da5cb5b146200026e57600080fd5b806373924935146200021057806379203dc4146200022757600080fd5b80632cb7ce38116200017c5780632cb7ce3814620001ca57806346020da414620001ef578063715018a6146200020657600080fd5b8063160fb908146200019a578063190daa0e14620001b3575b600080fd5b620001b1620001ab3660046200219a565b620003a8565b005b620001b1620001c43660046200232b565b6200056a565b620001d4620007a6565b604051620001e69493929190620023f8565b60405180910390f35b620001b16200020036600462002479565b620008f9565b620001b162000a02565b620001b1620002213660046200250e565b62000a79565b6200023160085481565b604051908152602001620001e6565b620001b162000251366004620025e3565b62000bc4565b620001b1620002683660046200261b565b62000e6b565b60005473ffffffffffffffffffffffffffffffffffffffff165b60405173ffffffffffffffffffffffffffffffffffffffff9091168152602001620001e6565b620001b1620002bf36600462002642565b62000f48565b620001b1620002d63660046200219a565b620010ab565b620001b1620002ed3660046200219a565b620011c4565b620001b1620003043660046200219a565b62001385565b620002316200031b36600462002734565b620014a8565b600154620002889073ffffffffffffffffffffffffffffffffffffffff1681565b620001b1620014cb565b620001b16200035d3660046200219a565b6200173d565b620001b16200037436600462002761565b62001929565b620001b16200038b3660046200261b565b62001b09565b620001b1620003a2366004620027c1565b62001c0b565b60005473ffffffffffffffffffffffffffffffffffffffff163314620004155760405162461bcd60e51b815260206004820181905260248201527f4f776e61626c653a2063616c6c6572206973206e6f7420746865206f776e657260448201526064015b60405180910390fd5b60015460029074010000000000000000000000000000000000000000900460ff1660038111156200044a576200044a620027ff565b60ff1610156200049d5760405162461bcd60e51b815260206004820152601560248201527f4e4f545f494e495449414c495a45445f564f544552000000000000000000000060448201526064016200040c565b6006546007546040517fbd86e5080000000000000000000000000000000000000000000000000000000081526004810184905273ffffffffffffffffffffffffffffffffffffffff918216602482015291169063bd86e50890604401600060405180830381600087803b1580156200051457600080fd5b505af115801562000529573d6000803e3d6000fd5b505050507f83eb99add5f9cf2d3a35ecd541b0f5289e3909bfef983d2c29feb719e4cdc0c0816040516200055f91815260200190565b60405180910390a150565b60008311620005bc5760405162461bcd60e51b815260206004820152600f60248201527f4e4f4e5f5a45524f5f414d4f554e54000000000000000000000000000000000060448201526064016200040c565b33600090815260096020526040902060018101546002820154620005e190866200285d565b1115620006315760405162461bcd60e51b815260206004820152600c60248201527f4558434545445f544f54414c000000000000000000000000000000000000000060448201526064016200040c565b838160020160008282546200064791906200285d565b909155506200065a905033308662001d90565b6040805160a08101825285815233602080830191825273ffffffffffffffffffffffffffffffffffffffff87811684860190815260608501888152600060808701819052600b548152600a8552969096208551815593516001850180549184167fffffffffffffffffffffffff0000000000000000000000000000000000000000928316179055905160028501805491909316911617905592518051929391926200070c9260038501920190620020e6565b5060809190910151600490910180547fffffffffffffffffffffffffffffffffffffffffffffffffffffffffffffff0016911515919091179055600b546040517f90bf6bef73f4bfda63a2761f6a40850999d5b4ba2aeb455830dd1505b772d9ee916200078191879033908890889062002878565b60405180910390a1600b80549060006200079b83620028bf565b919050555050505050565b600280546003546004805473ffffffffffffffffffffffffffffffffffffffff938416949290931692620007da90620028fb565b80601f01602080910402602001604051908101604052809291908181526020018280546200080890620028fb565b8015620008595780601f106200082d5761010080835404028352916020019162000859565b820191906000526020600020905b8154815290600101906020018083116200083b57829003601f168201915b5050505050908060030180546200087090620028fb565b80601f01602080910402602001604051908101604052809291908181526020018280546200089e90620028fb565b8015620008ef5780601f10620008c357610100808354040283529160200191620008ef565b820191906000526020600020905b815481529060010190602001808311620008d157829003601f168201915b5050505050905084565b60005473ffffffffffffffffffffffffffffffffffffffff163314620009625760405162461bcd60e51b815260206004820181905260248201527f4f776e61626c653a2063616c6c6572206973206e6f7420746865206f776e657260448201526064016200040c565b600a815110620009b55760405162461bcd60e51b815260206004820152601360248201527f4558434545445f5041594f55545f4c494d49540000000000000000000000000060448201526064016200040c565b60005b8151811015620009fe57620009e9828281518110620009db57620009db62002951565b60200260200101516200173d565b80620009f581620028bf565b915050620009b8565b5050565b60005473ffffffffffffffffffffffffffffffffffffffff16331462000a6b5760405162461bcd60e51b815260206004820181905260248201527f4f776e61626c653a2063616c6c6572206973206e6f7420746865206f776e657260448201526064016200040c565b62000a77600062001e3f565b565b60005473ffffffffffffffffffffffffffffffffffffffff16331462000ae25760405162461bcd60e51b815260206004820181905260248201527f4f776e61626c653a2063616c6c6572206973206e6f7420746865206f776e657260448201526064016200040c565b600a81511062000b355760405162461bcd60e51b815260206004820152601260248201527f4558434545445f42415443485f4c494d4954000000000000000000000000000060448201526064016200040c565b60005b8151811015620009fe5762000baf82828151811062000b5b5762000b5b62002951565b60200260200101516000015183838151811062000b7c5762000b7c62002951565b60200260200101516020015184848151811062000b9d5762000b9d62002951565b60200260200101516040015162000bc4565b8062000bbb81620028bf565b91505062000b38565b60005473ffffffffffffffffffffffffffffffffffffffff16331462000c2d5760405162461bcd60e51b815260206004820181905260248201527f4f776e61626c653a2063616c6c6572206973206e6f7420746865206f776e657260448201526064016200040c565b6000821162000c7f5760405162461bcd60e51b815260206004820152600f60248201527f4e4f4e5f5a45524f5f414d4f554e54000000000000000000000000000000000060448201526064016200040c565b6002546040517f70a0823100000000000000000000000000000000000000000000000000000000815230600482015260009173ffffffffffffffffffffffffffffffffffffffff16906370a0823190602401602060405180830381865afa15801562000cef573d6000803e3d6000fd5b505050506040513d601f19601f8201168201806040525081019062000d15919062002980565b9050808260085462000d2891906200285d565b111562000d785760405162461bcd60e51b815260206004820152601660248201527f4e4f545f4558434545445f544f4b454e5f4c494d49540000000000000000000060448201526064016200040c565b73ffffffffffffffffffffffffffffffffffffffff8416600090815260096020526040812080549091859183919062000db39084906200285d565b925050819055508381600101600082825462000dd091906200285d565b925050819055508281600301600082825462000ded91906200285d565b92505081905550826008600082825462000e0891906200285d565b90915550506040805173ffffffffffffffffffffffffffffffffffffffff87168152602081018690529081018490527f6f4433b6719ac1e60f01e486a2560c84d86c88f9efdb85986fa4a5b38fd7c6f29060600160405180910390a15050505050565b60005473ffffffffffffffffffffffffffffffffffffffff16331462000ed45760405162461bcd60e51b815260206004820181905260248201527f4f776e61626c653a2063616c6c6572206973206e6f7420746865206f776e657260448201526064016200040c565b600680547fffffffffffffffffffffffff00000000000000000000000000000000000000001673ffffffffffffffffffffffffffffffffffffffff83169081179091556040519081527f54413e4029c4b34d3b2d59e86cbd4e4c704bd444e9fb1ade66859555d9195775906020016200055f565b600060015474010000000000000000000000000000000000000000900460ff16600381111562000f7c5762000f7c620027ff565b1462000fcb5760405162461bcd60e51b815260206004820152601460248201527f416c726561647920696e697469616c697a65642100000000000000000000000060448201526064016200040c565b6001805473ffffffffffffffffffffffffffffffffffffffff808a167fffffffffffffffffffffffff0000000000000000000000000000000000000000928316179092556002805492891692909116919091179055835162001035906004906020870190620020e6565b5082516200104b906005906020860190620020e6565b50620010578562001e3f565b62001063828262001eb4565b5050600180547fffffffffffffffffffffff00ffffffffffffffffffffffffffffffffffffffff16740100000000000000000000000000000000000000001790555050505050565b60008111620010fd5760405162461bcd60e51b815260206004820152600d60248201527f4e4f5f434c41494d5f5a45524f0000000000000000000000000000000000000060448201526064016200040c565b33600090815260096020526040902080548211156200115f5760405162461bcd60e51b815260206004820152601260248201527f4558434545445f434c41494d5f4c494d4954000000000000000000000000000060448201526064016200040c565b818160000160008282546200117591906200299a565b90915550620011879050338362001fbe565b60408051338152602081018490527f5d425a3a6a3d5a60fbf147dc6659ce3dfeb701fc44fe90058c32783b8807c574910160405180910390a15050565b60005473ffffffffffffffffffffffffffffffffffffffff1633146200122d5760405162461bcd60e51b815260206004820181905260248201527f4f776e61626c653a2063616c6c6572206973206e6f7420746865206f776e657260448201526064016200040c565b600081116200127f5760405162461bcd60e51b815260206004820152601860248201527f4e4f5f57495448445241575f554e434c41494d5f5a45524f000000000000000060448201526064016200040c565b6002546040517f70a0823100000000000000000000000000000000000000000000000000000000815230600482015260009173ffffffffffffffffffffffffffffffffffffffff16906370a0823190602401602060405180830381865afa158015620012ef573d6000803e3d6000fd5b505050506040513d601f19601f8201168201806040525081019062001315919062002980565b9050600854816200132791906200299a565b821115620013785760405162461bcd60e51b815260206004820152601260248201527f4558434545445f434c41494d5f4c494d4954000000000000000000000000000060448201526064016200040c565b620009fe3033846200201e565b336000908152600960209081526040808320848452600a909252909120600481015460ff1615620013f95760405162461bcd60e51b815260206004820152600e60248201527f414c52454144595f5041594f555400000000000000000000000000000000000060448201526064016200040c565b6004810180547fffffffffffffffffffffffffffffffffffffffffffffffffffffffffffffff0016600117905580546002830180546000906200143e9084906200299a565b9091555050600281015481546200147091309173ffffffffffffffffffffffffffffffffffffffff9091169062001d90565b6040518381527fb3f882fcf2ac91c3f9a7d0b53d22e3893f3992dcffbf4b1ac49a07706eb225dc9060200160405180910390a1505050565b600082620014b78386620029b4565b620014c39190620029f4565b949350505050565b60005473ffffffffffffffffffffffffffffffffffffffff163314620015345760405162461bcd60e51b815260206004820181905260248201527f4f776e61626c653a2063616c6c6572206973206e6f7420746865206f776e657260448201526064016200040c565b6001805474010000000000000000000000000000000000000000900460ff166003811115620015675762001567620027ff565b14620015b65760405162461bcd60e51b815260206004820152601160248201527f4e4f545f50454e44494e475f535441544500000000000000000000000000000060448201526064016200040c565b60015473ffffffffffffffffffffffffffffffffffffffff1663b251b294620015f460005473ffffffffffffffffffffffffffffffffffffffff1690565b6040517fffffffff0000000000000000000000000000000000000000000000000000000060e084901b16815273ffffffffffffffffffffffffffffffffffffffff90911660048201526024016020604051808303816000875af115801562001660573d6000803e3d6000fd5b505050506040513d601f19601f8201168201806040525081019062001686919062002a30565b600780547fffffffffffffffffffffffff00000000000000000000000000000000000000001673ffffffffffffffffffffffffffffffffffffffff929092169182179055600180547fffffffffffffffffffffff00ffffffffffffffffffffffffffffffffffffffff167402000000000000000000000000000000000000000017905560408051918252517f63a40fb1ca0677d69a93f19d3e96304954abf2c58888d1a1f940d91d5a550a909181900360200190a1565b60005473ffffffffffffffffffffffffffffffffffffffff163314620017a65760405162461bcd60e51b815260206004820181905260248201527f4f776e61626c653a2063616c6c6572206973206e6f7420746865206f776e657260448201526064016200040c565b6000818152600a60205260409020600481015460ff16156200180b5760405162461bcd60e51b815260206004820152600e60248201527f414c52454144595f5041594f555400000000000000000000000000000000000060448201526064016200040c565b6200181b30826000015462002086565b60018082015473ffffffffffffffffffffffffffffffffffffffff166000908152600960205260408120835492810154600382015491936200186092909190620014a8565b9050808260030160008282546200187891906200299a565b90915550508254600283018054600090620018959084906200299a565b90915550506004830180547fffffffffffffffffffffffffffffffffffffffffffffffffffffffffffffff001660011790556002830154620018f090309073ffffffffffffffffffffffffffffffffffffffff16836200201e565b6040518481527fcea6422162818bdbb05ae884f2244db6752cc8adaae0c48f1197993032cc2a9d9060200160405180910390a150505050565b60005473ffffffffffffffffffffffffffffffffffffffff163314620019925760405162461bcd60e51b815260206004820181905260248201527f4f776e61626c653a2063616c6c6572206973206e6f7420746865206f776e657260448201526064016200040c565b600260015474010000000000000000000000000000000000000000900460ff166003811115620019c657620019c6620027ff565b1462001a155760405162461bcd60e51b815260206004820152601560248201527f4e4f545f494e495449414c495a45445f5354415445000000000000000000000060448201526064016200040c565b6002546007546040517fc3cda52000000000000000000000000000000000000000000000000000000000815273ffffffffffffffffffffffffffffffffffffffff9182166004820152602481018890526044810187905260ff861660648201526084810185905260a4810184905291169063c3cda5209060c401600060405180830381600087803b15801562001aaa57600080fd5b505af115801562001abf573d6000803e3d6000fd5b5050600180547fffffffffffffffffffffff00ffffffffffffffffffffffffffffffffffffffff167403000000000000000000000000000000000000000017905550505050505050565b60005473ffffffffffffffffffffffffffffffffffffffff16331462001b725760405162461bcd60e51b815260206004820181905260248201527f4f776e61626c653a2063616c6c6572206973206e6f7420746865206f776e657260448201526064016200040c565b73ffffffffffffffffffffffffffffffffffffffff811662001bfd5760405162461bcd60e51b815260206004820152602660248201527f4f776e61626c653a206e6577206f776e657220697320746865207a65726f206160448201527f646472657373000000000000000000000000000000000000000000000000000060648201526084016200040c565b62001c088162001e3f565b50565b60005473ffffffffffffffffffffffffffffffffffffffff16331462001c745760405162461bcd60e51b815260206004820181905260248201527f4f776e61626c653a2063616c6c6572206973206e6f7420746865206f776e657260448201526064016200040c565b60015460029074010000000000000000000000000000000000000000900460ff16600381111562001ca95762001ca9620027ff565b60ff16101562001cfc5760405162461bcd60e51b815260206004820152601560248201527f4e4f545f494e495449414c495a45445f564f544552000000000000000000000060448201526064016200040c565b6007546040517fac0679a600000000000000000000000000000000000000000000000000000000815273ffffffffffffffffffffffffffffffffffffffff848116600483015283151560248301529091169063ac0679a6906044015b600060405180830381600087803b15801562001d7357600080fd5b505af115801562001d88573d6000803e3d6000fd5b505050505050565b6003546040517f23b872dd00000000000000000000000000000000000000000000000000000000815273ffffffffffffffffffffffffffffffffffffffff8581166004830152848116602483015260448201849052909116906323b872dd906064015b6020604051808303816000875af115801562001e13573d6000803e3d6000fd5b505050506040513d601f19601f8201168201806040525081019062001e39919062002a50565b50505050565b6000805473ffffffffffffffffffffffffffffffffffffffff8381167fffffffffffffffffffffffff0000000000000000000000000000000000000000831681178455604051919092169283917f8be0079c531659141344cd1fd0a4f28419497f9722a3daafe3b4186f6b6457e09190a35050565b600060015474010000000000000000000000000000000000000000900460ff16600381111562001ee85762001ee8620027ff565b1462001f375760405162461bcd60e51b815260206004820152601160248201527f4e4f545f494e5f4e4f4e455f535441544500000000000000000000000000000060448201526064016200040c565b6000828260405162001f499062002175565b62001f5692919062002a70565b604051809103906000f08015801562001f73573d6000803e3d6000fd5b50600380547fffffffffffffffffffffffff00000000000000000000000000000000000000001673ffffffffffffffffffffffffffffffffffffffff92909216919091179055505050565b6003546040517f575dbebe00000000000000000000000000000000000000000000000000000000815273ffffffffffffffffffffffffffffffffffffffff8481166004830152602482018490529091169063575dbebe9060440162001d58565b6002546040517f23b872dd00000000000000000000000000000000000000000000000000000000815273ffffffffffffffffffffffffffffffffffffffff8581166004830152848116602483015260448201849052909116906323b872dd9060640162001df3565b6003546040517f63fb8cf900000000000000000000000000000000000000000000000000000000815273ffffffffffffffffffffffffffffffffffffffff848116600483015260248201849052909116906363fb8cf99060440162001d58565b828054620020f490620028fb565b90600052602060002090601f01602090048101928262002118576000855562002163565b82601f106200213357805160ff191683800117855562002163565b8280016001018555821562002163579182015b828111156200216357825182559160200191906001019062002146565b506200217192915062002183565b5090565b61290e8062002aa383390190565b5b8082111562002171576000815560010162002184565b600060208284031215620021ad57600080fd5b5035919050565b73ffffffffffffffffffffffffffffffffffffffff8116811462001c0857600080fd5b8035620021e481620021b4565b919050565b7f4e487b7100000000000000000000000000000000000000000000000000000000600052604160045260246000fd5b6040516060810167ffffffffffffffff811182821017156200223e576200223e620021e9565b60405290565b604051601f82017fffffffffffffffffffffffffffffffffffffffffffffffffffffffffffffffe016810167ffffffffffffffff811182821017156200228e576200228e620021e9565b604052919050565b600082601f830112620022a857600080fd5b813567ffffffffffffffff811115620022c557620022c5620021e9565b620022f860207fffffffffffffffffffffffffffffffffffffffffffffffffffffffffffffffe0601f8401160162002244565b8181528460208386010111156200230e57600080fd5b816020850160208301376000918101602001919091529392505050565b6000806000606084860312156200234157600080fd5b8335925060208401356200235581620021b4565b9150604084013567ffffffffffffffff8111156200237257600080fd5b620023808682870162002296565b9150509250925092565b6000815180845260005b81811015620023b25760208185018101518683018201520162002394565b81811115620023c5576000602083870101525b50601f017fffffffffffffffffffffffffffffffffffffffffffffffffffffffffffffffe0169290920160200192915050565b600073ffffffffffffffffffffffffffffffffffffffff8087168352808616602084015250608060408301526200243360808301856200238a565b82810360608401526200244781856200238a565b979650505050505050565b600067ffffffffffffffff8211156200246f576200246f620021e9565b5060051b60200190565b600060208083850312156200248d57600080fd5b823567ffffffffffffffff811115620024a557600080fd5b8301601f81018513620024b757600080fd5b8035620024ce620024c88262002452565b62002244565b81815260059190911b82018301908381019087831115620024ee57600080fd5b928401925b828410156200244757833582529284019290840190620024f3565b600060208083850312156200252257600080fd5b823567ffffffffffffffff8111156200253a57600080fd5b8301601f810185136200254c57600080fd5b80356200255d620024c88262002452565b818152606091820283018401918482019190888411156200257d57600080fd5b938501935b83851015620025d75780858a0312156200259c5760008081fd5b620025a662002218565b8535620025b381620021b4565b81528587013587820152604080870135908201528352938401939185019162002582565b50979650505050505050565b600080600060608486031215620025f957600080fd5b83356200260681620021b4565b95602085013595506040909401359392505050565b6000602082840312156200262e57600080fd5b81356200263b81620021b4565b9392505050565b600080600080600080600060e0888a0312156200265e57600080fd5b6200266988620021d7565b96506200267960208901620021d7565b95506200268960408901620021d7565b9450606088013567ffffffffffffffff80821115620026a757600080fd5b620026b58b838c0162002296565b955060808a0135915080821115620026cc57600080fd5b620026da8b838c0162002296565b945060a08a0135915080821115620026f157600080fd5b620026ff8b838c0162002296565b935060c08a01359150808211156200271657600080fd5b50620027258a828b0162002296565b91505092959891949750929550565b6000806000606084860312156200274a57600080fd5b505081359360208301359350604090920135919050565b600080600080600060a086880312156200277a57600080fd5b8535945060208601359350604086013560ff811681146200279a57600080fd5b94979396509394606081013594506080013592915050565b801515811462001c0857600080fd5b60008060408385031215620027d557600080fd5b8235620027e281620021b4565b91506020830135620027f481620027b2565b809150509250929050565b7f4e487b7100000000000000000000000000000000000000000000000000000000600052602160045260246000fd5b7f4e487b7100000000000000000000000000000000000000000000000000000000600052601160045260246000fd5b600082198211156200287357620028736200282e565b500190565b858152846020820152600073ffffffffffffffffffffffffffffffffffffffff808616604084015280851660608401525060a060808301526200244760a08301846200238a565b60007fffffffffffffffffffffffffffffffffffffffffffffffffffffffffffffffff821415620028f457620028f46200282e565b5060010190565b600181811c908216806200291057607f821691505b602082108114156200294b577f4e487b7100000000000000000000000000000000000000000000000000000000600052602260045260246000fd5b50919050565b7f4e487b7100000000000000000000000000000000000000000000000000000000600052603260045260246000fd5b6000602082840312156200299357600080fd5b5051919050565b600082821015620029af57620029af6200282e565b500390565b6000817fffffffffffffffffffffffffffffffffffffffffffffffffffffffffffffffff0483118215151615620029ef57620029ef6200282e565b500290565b60008262002a2b577f4e487b7100000000000000000000000000000000000000000000000000000000600052601260045260246000fd5b500490565b60006020828403121562002a4357600080fd5b81516200263b81620021b4565b60006020828403121562002a6357600080fd5b81516200263b81620027b2565b60408152600062002a8560408301856200238a565b828103602084015262002a9981856200238a565b9594505050505056fe6101406040523480156200001257600080fd5b506040516200290e3803806200290e8339810160408190526200003591620002ed565b8180604051806040016040528060018152602001603160f81b815250848481600390805190602001906200006b9291906200017a565b508051620000819060049060208401906200017a565b5050825160209384012082519284019290922060e08390526101008190524660a0818152604080517f8b73c3c69bb8fe3d512ecc4cf759cc79239f7b179b0ffacaa9a75d522b39400f818901819052818301979097526060810194909452608080850193909352308483018190528151808603909301835260c09485019091528151919096012090529290925261012052506200012090503362000128565b505062000394565b600a80546001600160a01b038381166001600160a01b0319831681179093556040519116919082907f8be0079c531659141344cd1fd0a4f28419497f9722a3daafe3b4186f6b6457e090600090a35050565b828054620001889062000357565b90600052602060002090601f016020900481019282620001ac5760008555620001f7565b82601f10620001c757805160ff1916838001178555620001f7565b82800160010185558215620001f7579182015b82811115620001f7578251825591602001919060010190620001da565b506200020592915062000209565b5090565b5b808211156200020557600081556001016200020a565b634e487b7160e01b600052604160045260246000fd5b600082601f8301126200024857600080fd5b81516001600160401b038082111562000265576200026562000220565b604051601f8301601f19908116603f0116810190828211818310171562000290576200029062000220565b81604052838152602092508683858801011115620002ad57600080fd5b600091505b83821015620002d15785820183015181830184015290820190620002b2565b83821115620002e35760008385830101525b9695505050505050565b600080604083850312156200030157600080fd5b82516001600160401b03808211156200031957600080fd5b620003278683870162000236565b935060208501519150808211156200033e57600080fd5b506200034d8582860162000236565b9150509250929050565b600181811c908216806200036c57607f821691505b602082108114156200038e57634e487b7160e01b600052602260045260246000fd5b50919050565b60805160a05160c05160e051610100516101205161252a620003e460003960006112a5015260006112f4015260006112cf01526000611228015260006112520152600061127c015261252a6000f3fe608060405234801561001057600080fd5b50600436106101cf5760003560e01c8063715018a611610104578063a457c2d7116100a2578063d505accf11610071578063d505accf1461041d578063dd62ed3e14610430578063f1127ed814610469578063f2fde38b146104bb57600080fd5b8063a457c2d7146103d1578063a9059cbb146103e4578063b4b5ea57146103f7578063c3cda5201461040a57600080fd5b80638da5cb5b116100de5780638da5cb5b146103925780638e539e8c146103a357806395d89b41146103b65780639ab24eb0146103be57600080fd5b8063715018a614610347578063782d6fe11461034f5780637ecebe001461037f57600080fd5b80633a46b1a8116101715780635c19a95c1161014b5780635c19a95c146102d057806363fb8cf9146102e35780636fcfff45146102f657806370a082311461031e57600080fd5b80633a46b1a814610264578063575dbebe14610277578063587cde1e1461028c57600080fd5b806323b872dd116101ad57806323b872dd14610227578063313ce5671461023a5780633644e51514610249578063395093511461025157600080fd5b806306fdde03146101d4578063095ea7b3146101f257806318160ddd14610215575b600080fd5b6101dc6104ce565b6040516101e99190612140565b60405180910390f35b6102056102003660046121cf565b610560565b60405190151581526020016101e9565b6002545b6040519081526020016101e9565b6102056102353660046121f9565b610578565b604051601281526020016101e9565b61021961059c565b61020561025f3660046121cf565b6105ab565b6102196102723660046121cf565b6105ea565b61028a6102853660046121cf565b610669565b005b6102b861029a366004612235565b6001600160a01b039081166000908152600760205260409020541690565b6040516001600160a01b0390911681526020016101e9565b61028a6102de366004612235565b6106d1565b61028a6102f13660046121cf565b6106de565b610309610304366004612235565b610742565b60405163ffffffff90911681526020016101e9565b61021961032c366004612235565b6001600160a01b031660009081526020819052604090205490565b61028a61076a565b61036261035d3660046121cf565b6107d0565b6040516bffffffffffffffffffffffff90911681526020016101e9565b61021961038d366004612235565b6107e4565b600a546001600160a01b03166102b8565b6102196103b1366004612250565b610802565b6101dc61085e565b6102196103cc366004612235565b61086d565b6102056103df3660046121cf565b61091e565b6102056103f23660046121cf565b6109c8565b610362610405366004612235565b6109d6565b61028a61041836600461227a565b6109e4565b61028a61042b3660046122d2565b610b1a565b61021961043e36600461233c565b6001600160a01b03918216600090815260016020908152604080832093909416825291909152205490565b61047c61047736600461236f565b610c7e565b60408051825163ffffffff1681526020928301517bffffffffffffffffffffffffffffffffffffffffffffffffffffffff1692810192909252016101e9565b61028a6104c9366004612235565b610d17565b6060600380546104dd906123af565b80601f0160208091040260200160405190810160405280929190818152602001828054610509906123af565b80156105565780601f1061052b57610100808354040283529160200191610556565b820191906000526020600020905b81548152906001019060200180831161053957829003601f168201915b5050505050905090565b60003361056e818585610df6565b5060019392505050565b600033610586858285610f4e565b610591858585610ffe565b506001949350505050565b60006105a661121b565b905090565b3360008181526001602090815260408083206001600160a01b038716845290915281205490919061056e90829086906105e590879061242c565b610df6565b60004382106106405760405162461bcd60e51b815260206004820152601f60248201527f4552433230566f7465733a20626c6f636b206e6f7420796574206d696e65640060448201526064015b60405180910390fd5b6001600160a01b03831660009081526008602052604090206106629083611342565b9392505050565b600a546001600160a01b031633146106c35760405162461bcd60e51b815260206004820181905260248201527f4f776e61626c653a2063616c6c6572206973206e6f7420746865206f776e65726044820152606401610637565b6106cd8282611429565b5050565b6106db3382611433565b50565b600a546001600160a01b031633146107385760405162461bcd60e51b815260206004820181905260248201527f4f776e61626c653a2063616c6c6572206973206e6f7420746865206f776e65726044820152606401610637565b6106cd82826114c4565b6001600160a01b038116600090815260086020526040812054610764906114ce565b92915050565b600a546001600160a01b031633146107c45760405162461bcd60e51b815260206004820181905260248201527f4f776e61626c653a2063616c6c6572206973206e6f7420746865206f776e65726044820152606401610637565b6107ce600061154e565b565b60006106626107df84846105ea565b6115b8565b6001600160a01b038116600090815260056020526040812054610764565b60004382106108535760405162461bcd60e51b815260206004820152601f60248201527f4552433230566f7465733a20626c6f636b206e6f7420796574206d696e6564006044820152606401610637565b610764600983611342565b6060600480546104dd906123af565b6001600160a01b03811660009081526008602052604081205480156108f6576001600160a01b03831660009081526008602052604090206108af600183612444565b815481106108bf576108bf61245b565b60009182526020909120015464010000000090047bffffffffffffffffffffffffffffffffffffffffffffffffffffffff166108f9565b60005b7bffffffffffffffffffffffffffffffffffffffffffffffffffffffff169392505050565b3360008181526001602090815260408083206001600160a01b0387168452909152812054909190838110156109bb5760405162461bcd60e51b815260206004820152602560248201527f45524332303a2064656372656173656420616c6c6f77616e63652062656c6f7760448201527f207a65726f0000000000000000000000000000000000000000000000000000006064820152608401610637565b6105918286868403610df6565b60003361056e818585610ffe565b60006107646107df8361086d565b83421115610a345760405162461bcd60e51b815260206004820152601d60248201527f4552433230566f7465733a207369676e617475726520657870697265640000006044820152606401610637565b604080517fe48329057bfd03d55e49b547132e39cffd9c1820ad7b9d4c5307691425d15adf60208201526001600160a01b038816918101919091526060810186905260808101859052600090610aae90610aa69060a0016040516020818303038152906040528051906020012061163c565b8585856116a5565b9050610ab9816116cd565b8614610b075760405162461bcd60e51b815260206004820152601960248201527f4552433230566f7465733a20696e76616c6964206e6f6e6365000000000000006044820152606401610637565b610b118188611433565b50505050505050565b83421115610b6a5760405162461bcd60e51b815260206004820152601d60248201527f45524332305065726d69743a206578706972656420646561646c696e650000006044820152606401610637565b60007f6e71edae12b1b97f4d1f60370fef10105fa2faae0126114a169c64845d6126c9888888610b998c6116cd565b6040805160208101969096526001600160a01b0394851690860152929091166060840152608083015260a082015260c0810186905260e0016040516020818303038152906040528051906020012090506000610bf48261163c565b90506000610c04828787876116a5565b9050896001600160a01b0316816001600160a01b031614610c675760405162461bcd60e51b815260206004820152601e60248201527f45524332305065726d69743a20696e76616c6964207369676e617475726500006044820152606401610637565b610c728a8a8a610df6565b50505050505050505050565b60408051808201909152600080825260208201526001600160a01b0383166000908152600860205260409020805463ffffffff8416908110610cc257610cc261245b565b60009182526020918290206040805180820190915291015463ffffffff8116825264010000000090047bffffffffffffffffffffffffffffffffffffffffffffffffffffffff16918101919091529392505050565b600a546001600160a01b03163314610d715760405162461bcd60e51b815260206004820181905260248201527f4f776e61626c653a2063616c6c6572206973206e6f7420746865206f776e65726044820152606401610637565b6001600160a01b038116610ded5760405162461bcd60e51b815260206004820152602660248201527f4f776e61626c653a206e6577206f776e657220697320746865207a65726f206160448201527f64647265737300000000000000000000000000000000000000000000000000006064820152608401610637565b6106db8161154e565b6001600160a01b038316610e715760405162461bcd60e51b8152602060048201526024808201527f45524332303a20617070726f76652066726f6d20746865207a65726f2061646460448201527f72657373000000000000000000000000000000000000000000000000000000006064820152608401610637565b6001600160a01b038216610eed5760405162461bcd60e51b815260206004820152602260248201527f45524332303a20617070726f766520746f20746865207a65726f20616464726560448201527f73730000000000000000000000000000000000000000000000000000000000006064820152608401610637565b6001600160a01b0383811660008181526001602090815260408083209487168084529482529182902085905590518481527f8c5be1e5ebec7d5bd14f71427d1e84f3dd0314c0f7b2291e5b200ac8c7c3b925910160405180910390a3505050565b6001600160a01b038381166000908152600160209081526040808320938616835292905220547fffffffffffffffffffffffffffffffffffffffffffffffffffffffffffffffff8114610ff85781811015610feb5760405162461bcd60e51b815260206004820152601d60248201527f45524332303a20696e73756666696369656e7420616c6c6f77616e63650000006044820152606401610637565b610ff88484848403610df6565b50505050565b6001600160a01b03831661107a5760405162461bcd60e51b815260206004820152602560248201527f45524332303a207472616e736665722066726f6d20746865207a65726f20616460448201527f64726573730000000000000000000000000000000000000000000000000000006064820152608401610637565b6001600160a01b0382166110f65760405162461bcd60e51b815260206004820152602360248201527f45524332303a207472616e7366657220746f20746865207a65726f206164647260448201527f65737300000000000000000000000000000000000000000000000000000000006064820152608401610637565b6001600160a01b038316600090815260208190526040902054818110156111855760405162461bcd60e51b815260206004820152602660248201527f45524332303a207472616e7366657220616d6f756e742065786365656473206260448201527f616c616e636500000000000000000000000000000000000000000000000000006064820152608401610637565b6001600160a01b038085166000908152602081905260408082208585039055918516815290812080548492906111bc90849061242c565b92505081905550826001600160a01b0316846001600160a01b03167fddf252ad1be2c89b69c2b068fc378daa952ba7f163c4a11628f55a4df523b3ef8460405161120891815260200190565b60405180910390a3610ff88484846116fa565b6000306001600160a01b037f00000000000000000000000000000000000000000000000000000000000000001614801561127457507f000000000000000000000000000000000000000000000000000000000000000046145b1561129e57507f000000000000000000000000000000000000000000000000000000000000000090565b50604080517f00000000000000000000000000000000000000000000000000000000000000006020808301919091527f0000000000000000000000000000000000000000000000000000000000000000828401527f000000000000000000000000000000000000000000000000000000000000000060608301524660808301523060a0808401919091528351808403909101815260c0909201909252805191012090565b8154600090815b818110156113a657600061135d8284611705565b9050848682815481106113725761137261245b565b60009182526020909120015463ffffffff161115611392578092506113a0565b61139d81600161242c565b91505b50611349565b81156113ff57846113b8600184612444565b815481106113c8576113c861245b565b60009182526020909120015464010000000090047bffffffffffffffffffffffffffffffffffffffffffffffffffffffff16611402565b60005b7bffffffffffffffffffffffffffffffffffffffffffffffffffffffff1695945050505050565b6106cd8282611720565b6001600160a01b038281166000818152600760208181526040808420805485845282862054949093528787167fffffffffffffffffffffffff00000000000000000000000000000000000000008416811790915590519190951694919391928592917f3134e8a2e6d97e929a7e54011ea5485d7d196dd5f0ba4d4ef95803e8e3fc257f9190a4610ff88284836117bc565b6106cd82826118f9565b600063ffffffff82111561154a5760405162461bcd60e51b815260206004820152602660248201527f53616665436173743a2076616c756520646f65736e27742066697420696e203360448201527f32206269747300000000000000000000000000000000000000000000000000006064820152608401610637565b5090565b600a80546001600160a01b038381167fffffffffffffffffffffffff0000000000000000000000000000000000000000831681179093556040519116919082907f8be0079c531659141344cd1fd0a4f28419497f9722a3daafe3b4186f6b6457e090600090a35050565b60006bffffffffffffffffffffffff82111561154a5760405162461bcd60e51b815260206004820152602660248201527f53616665436173743a2076616c756520646f65736e27742066697420696e203960448201527f36206269747300000000000000000000000000000000000000000000000000006064820152608401610637565b600061076461164961121b565b836040517f19010000000000000000000000000000000000000000000000000000000000006020820152602281018390526042810182905260009060620160405160208183030381529060405280519060200120905092915050565b60008060006116b687878787611911565b915091506116c381611a1c565b5095945050505050565b6001600160a01b03811660009081526005602052604090208054600181018255905b50919050565b505050565b6116f5838383611c0d565b6000611714600284841861248a565b6106629084841661242c565b61172a8282611c3f565b6002546bffffffffffffffffffffffff10156117ae5760405162461bcd60e51b815260206004820152603060248201527f4552433230566f7465733a20746f74616c20737570706c79207269736b73206f60448201527f766572666c6f77696e6720766f746573000000000000000000000000000000006064820152608401610637565b610ff86009611d2683611d32565b816001600160a01b0316836001600160a01b0316141580156117de5750600081115b156116f5576001600160a01b0383161561186c576001600160a01b0383166000908152600860205260408120819061181990611f1485611d32565b91509150846001600160a01b03167fdec2bacdd2f05b59de34da9b523dff8be42e5e38e818c82fdb0bae774387a7248383604051611861929190918252602082015260400190565b60405180910390a250505b6001600160a01b038216156116f5576001600160a01b038216600090815260086020526040812081906118a290611d2685611d32565b91509150836001600160a01b03167fdec2bacdd2f05b59de34da9b523dff8be42e5e38e818c82fdb0bae774387a72483836040516118ea929190918252602082015260400190565b60405180910390a25050505050565b6119038282611f20565b610ff86009611f1483611d32565b6000807f7fffffffffffffffffffffffffffffff5d576e7357a4501ddfe92f46681b20a08311156119485750600090506003611a13565b8460ff16601b1415801561196057508460ff16601c14155b156119715750600090506004611a13565b6040805160008082526020820180845289905260ff881692820192909252606081018690526080810185905260019060a0016020604051602081039080840390855afa1580156119c5573d6000803e3d6000fd5b50506040517fffffffffffffffffffffffffffffffffffffffffffffffffffffffffffffffe001519150506001600160a01b038116611a0c57600060019250925050611a13565b9150600090505b94509492505050565b6000816004811115611a3057611a306124c5565b1415611a395750565b6001816004811115611a4d57611a4d6124c5565b1415611a9b5760405162461bcd60e51b815260206004820152601860248201527f45434453413a20696e76616c6964207369676e617475726500000000000000006044820152606401610637565b6002816004811115611aaf57611aaf6124c5565b1415611afd5760405162461bcd60e51b815260206004820152601f60248201527f45434453413a20696e76616c6964207369676e6174757265206c656e677468006044820152606401610637565b6003816004811115611b1157611b116124c5565b1415611b855760405162461bcd60e51b815260206004820152602260248201527f45434453413a20696e76616c6964207369676e6174757265202773272076616c60448201527f75650000000000000000000000000000000000000000000000000000000000006064820152608401610637565b6004816004811115611b9957611b996124c5565b14156106db5760405162461bcd60e51b815260206004820152602260248201527f45434453413a20696e76616c6964207369676e6174757265202776272076616c60448201527f75650000000000000000000000000000000000000000000000000000000000006064820152608401610637565b6001600160a01b038381166000908152600760205260408082205485841683529120546116f5929182169116836117bc565b6001600160a01b038216611c955760405162461bcd60e51b815260206004820152601f60248201527f45524332303a206d696e7420746f20746865207a65726f2061646472657373006044820152606401610637565b8060026000828254611ca7919061242c565b90915550506001600160a01b03821660009081526020819052604081208054839290611cd490849061242c565b90915550506040518181526001600160a01b038316906000907fddf252ad1be2c89b69c2b068fc378daa952ba7f163c4a11628f55a4df523b3ef9060200160405180910390a36106cd600083836116fa565b6000610662828461242c565b825460009081908015611d925785611d4b600183612444565b81548110611d5b57611d5b61245b565b60009182526020909120015464010000000090047bffffffffffffffffffffffffffffffffffffffffffffffffffffffff16611d95565b60005b7bffffffffffffffffffffffffffffffffffffffffffffffffffffffff169250611dc383858763ffffffff16565b9150600081118015611e0157504386611ddd600184612444565b81548110611ded57611ded61245b565b60009182526020909120015463ffffffff16145b15611e8b57611e0f826120ac565b86611e1b600184612444565b81548110611e2b57611e2b61245b565b9060005260206000200160000160046101000a8154817bffffffffffffffffffffffffffffffffffffffffffffffffffffffff02191690837bffffffffffffffffffffffffffffffffffffffffffffffffffffffff160217905550611f0b565b856040518060400160405280611ea0436114ce565b63ffffffff168152602001611eb4856120ac565b7bffffffffffffffffffffffffffffffffffffffffffffffffffffffff90811690915282546001810184556000938452602093849020835194909301519091166401000000000263ffffffff909316929092179101555b50935093915050565b60006106628284612444565b6001600160a01b038216611f9c5760405162461bcd60e51b815260206004820152602160248201527f45524332303a206275726e2066726f6d20746865207a65726f2061646472657360448201527f73000000000000000000000000000000000000000000000000000000000000006064820152608401610637565b6001600160a01b0382166000908152602081905260409020548181101561202b5760405162461bcd60e51b815260206004820152602260248201527f45524332303a206275726e20616d6f756e7420657863656564732062616c616e60448201527f63650000000000000000000000000000000000000000000000000000000000006064820152608401610637565b6001600160a01b038316600090815260208190526040812083830390556002805484929061205a908490612444565b90915550506040518281526000906001600160a01b038516907fddf252ad1be2c89b69c2b068fc378daa952ba7f163c4a11628f55a4df523b3ef9060200160405180910390a36116f5836000846116fa565b60007bffffffffffffffffffffffffffffffffffffffffffffffffffffffff82111561154a5760405162461bcd60e51b815260206004820152602760248201527f53616665436173743a2076616c756520646f65736e27742066697420696e203260448201527f32342062697473000000000000000000000000000000000000000000000000006064820152608401610637565b600060208083528351808285015260005b8181101561216d57858101830151858201604001528201612151565b8181111561217f576000604083870101525b50601f017fffffffffffffffffffffffffffffffffffffffffffffffffffffffffffffffe016929092016040019392505050565b80356001600160a01b03811681146121ca57600080fd5b919050565b600080604083850312156121e257600080fd5b6121eb836121b3565b946020939093013593505050565b60008060006060848603121561220e57600080fd5b612217846121b3565b9250612225602085016121b3565b9150604084013590509250925092565b60006020828403121561224757600080fd5b610662826121b3565b60006020828403121561226257600080fd5b5035919050565b803560ff811681146121ca57600080fd5b60008060008060008060c0878903121561229357600080fd5b61229c876121b3565b955060208701359450604087013593506122b860608801612269565b92506080870135915060a087013590509295509295509295565b600080600080600080600060e0888a0312156122ed57600080fd5b6122f6886121b3565b9650612304602089016121b3565b9550604088013594506060880135935061232060808901612269565b925060a0880135915060c0880135905092959891949750929550565b6000806040838503121561234f57600080fd5b612358836121b3565b9150612366602084016121b3565b90509250929050565b6000806040838503121561238257600080fd5b61238b836121b3565b9150602083013563ffffffff811681146123a457600080fd5b809150509250929050565b600181811c908216806123c357607f821691505b602082108114156116ef577f4e487b7100000000000000000000000000000000000000000000000000000000600052602260045260246000fd5b7f4e487b7100000000000000000000000000000000000000000000000000000000600052601160045260246000fd5b6000821982111561243f5761243f6123fd565b500190565b600082821015612456576124566123fd565b500390565b7f4e487b7100000000000000000000000000000000000000000000000000000000600052603260045260246000fd5b6000826124c0577f4e487b7100000000000000000000000000000000000000000000000000000000600052601260045260246000fd5b500490565b7f4e487b7100000000000000000000000000000000000000000000000000000000600052602160045260246000fdfea2646970667358221220ac12252ff0cb2a50fd83e3832a8cdf86187413be9b222bc4bea648004107928d64736f6c634300080b0033a2646970667358221220c2b24ada55c3ca8e4d8d9e34904e6c75a7518add6093a028b60bd499f59333b864736f6c634300080b0033",
  "devdoc": {
    "kind": "dev",
    "methods": {
      "splitBranch(address,uint256,string,string,string,string)": {
        "details": "create new branch for splint up subdao",
        "params": {
          "amount": "initial amount of parent token",
          "imageUrl": "link to url of subdao's image",
          "name": "name of subdao",
          "parentToken": "address of ERC20 token",
          "tokenName": "name of subdao token",
          "tokenSymbol": "symbol of subdao token"
        }
      }
    },
    "version": 1
  },
  "userdoc": {
    "kind": "user",
    "methods": {},
    "version": 1
  },
  "storageLayout": {
    "storage": [
      {
        "astId": 4814,
        "contract": "contracts/SocotraFactory.sol:SocotraFactory",
        "label": "branchIds",
        "offset": 0,
        "slot": "0",
        "type": "t_uint256"
      },
      {
        "astId": 4817,
        "contract": "contracts/SocotraFactory.sol:SocotraFactory",
        "label": "MIN_ISSUE_AMOUNT",
        "offset": 0,
        "slot": "1",
        "type": "t_uint256"
      },
      {
        "astId": 4822,
        "contract": "contracts/SocotraFactory.sol:SocotraFactory",
        "label": "branches",
        "offset": 0,
        "slot": "2",
        "type": "t_mapping(t_uint256,t_struct(BranchDetail)5676_storage)"
      }
    ],
    "types": {
      "t_address": {
        "encoding": "inplace",
        "label": "address",
        "numberOfBytes": "20"
      },
      "t_mapping(t_uint256,t_struct(BranchDetail)5676_storage)": {
        "encoding": "mapping",
        "key": "t_uint256",
        "label": "mapping(uint256 => struct ISocotraFactory.BranchDetail)",
        "numberOfBytes": "32",
        "value": "t_struct(BranchDetail)5676_storage"
      },
      "t_struct(BranchDetail)5676_storage": {
        "encoding": "inplace",
        "label": "struct ISocotraFactory.BranchDetail",
        "members": [
          {
            "astId": 5671,
            "contract": "contracts/SocotraFactory.sol:SocotraFactory",
            "label": "branchAddr",
            "offset": 0,
            "slot": "0",
            "type": "t_address"
          },
          {
            "astId": 5673,
            "contract": "contracts/SocotraFactory.sol:SocotraFactory",
            "label": "parentToken",
            "offset": 0,
            "slot": "1",
            "type": "t_address"
          },
          {
            "astId": 5675,
            "contract": "contracts/SocotraFactory.sol:SocotraFactory",
            "label": "issuer",
            "offset": 0,
            "slot": "2",
            "type": "t_address"
          }
        ],
        "numberOfBytes": "96"
      },
      "t_uint256": {
        "encoding": "inplace",
        "label": "uint256",
        "numberOfBytes": "32"
      }
    }
  }
}